{
  "contractName": "DAppPay",
  "abi": [
    {
      "inputs": [],
      "payable": false,
      "stateMutability": "nonpayable",
      "type": "constructor"
    },
    {
      "anonymous": false,
      "inputs": [
        {
          "indexed": false,
          "internalType": "address payable",
          "name": "accountNo",
          "type": "address"
        },
        {
          "indexed": false,
          "internalType": "string",
          "name": "accountHolderName",
          "type": "string"
        },
        {
          "indexed": false,
          "internalType": "string",
          "name": "dpayId",
          "type": "string"
        },
        {
          "indexed": false,
          "internalType": "uint256",
          "name": "phoneNo",
          "type": "uint256"
        },
        {
          "indexed": false,
          "internalType": "string",
          "name": "googleId",
          "type": "string"
        },
        {
          "indexed": false,
          "internalType": "bool",
          "name": "isPrimaryAccount",
          "type": "bool"
        }
      ],
      "name": "AccountCreated",
      "type": "event"
    },
    {
      "anonymous": false,
      "inputs": [
        {
          "indexed": false,
          "internalType": "address payable",
          "name": "accountNo",
          "type": "address"
        },
        {
          "indexed": false,
          "internalType": "string",
          "name": "accountHolderName",
          "type": "string"
        },
        {
          "indexed": false,
          "internalType": "string",
          "name": "dpayId",
          "type": "string"
        },
        {
          "indexed": false,
          "internalType": "uint256",
          "name": "phoneNo",
          "type": "uint256"
        },
        {
          "indexed": false,
          "internalType": "string",
          "name": "googleId",
          "type": "string"
        },
        {
          "indexed": false,
          "internalType": "bool",
          "name": "isPrimaryAccount",
          "type": "bool"
        }
      ],
      "name": "AccountEdited",
      "type": "event"
    },
    {
      "anonymous": false,
      "inputs": [
        {
          "indexed": false,
          "internalType": "address",
          "name": "requestingTo",
          "type": "address"
        },
        {
          "indexed": false,
          "internalType": "address payable",
          "name": "requestingFrom",
          "type": "address"
        },
        {
          "indexed": false,
          "internalType": "uint256",
          "name": "amount",
          "type": "uint256"
        },
        {
          "indexed": false,
          "internalType": "bool",
          "name": "isFulfilled",
          "type": "bool"
        },
        {
          "indexed": false,
          "internalType": "bool",
          "name": "isRejected",
          "type": "bool"
        }
      ],
      "name": "AmmountRequested",
      "type": "event"
    },
    {
      "anonymous": false,
      "inputs": [
        {
          "indexed": false,
          "internalType": "address",
          "name": "sender",
          "type": "address"
        },
        {
          "indexed": false,
          "internalType": "address payable",
          "name": "receiver",
          "type": "address"
        },
        {
          "indexed": false,
          "internalType": "uint256",
          "name": "amount",
          "type": "uint256"
        }
      ],
      "name": "AmmountTransfered",
      "type": "event"
    },
    {
      "anonymous": false,
      "inputs": [
        {
          "indexed": false,
          "internalType": "address",
          "name": "requestingTo",
          "type": "address"
        },
        {
          "indexed": false,
          "internalType": "address payable",
          "name": "requestingFrom",
          "type": "address"
        },
        {
          "indexed": false,
          "internalType": "uint256",
          "name": "amount",
          "type": "uint256"
        },
        {
          "indexed": false,
          "internalType": "bool",
          "name": "isFulfilled",
          "type": "bool"
        },
        {
          "indexed": false,
          "internalType": "bool",
          "name": "isRejected",
          "type": "bool"
        }
      ],
      "name": "FulFillAmmountRequested",
      "type": "event"
    },
    {
      "anonymous": false,
      "inputs": [
        {
          "indexed": false,
          "internalType": "address",
          "name": "requestingTo",
          "type": "address"
        },
        {
          "indexed": false,
          "internalType": "address payable",
          "name": "requestingFrom",
          "type": "address"
        },
        {
          "indexed": false,
          "internalType": "uint256",
          "name": "amount",
          "type": "uint256"
        },
        {
          "indexed": false,
          "internalType": "bool",
          "name": "isFulfilled",
          "type": "bool"
        },
        {
          "indexed": false,
          "internalType": "bool",
          "name": "isRejected",
          "type": "bool"
        }
      ],
      "name": "RejectAmmountRequested",
      "type": "event"
    },
    {
      "constant": true,
      "inputs": [
        {
          "internalType": "address",
          "name": "",
          "type": "address"
        }
      ],
      "name": "accountNumbers",
      "outputs": [
        {
          "internalType": "bool",
          "name": "",
          "type": "bool"
        }
      ],
      "payable": false,
      "stateMutability": "view",
      "type": "function"
    },
    {
      "constant": true,
      "inputs": [
        {
          "internalType": "uint256",
          "name": "",
          "type": "uint256"
        }
      ],
      "name": "accounts",
      "outputs": [
        {
          "internalType": "address payable",
          "name": "accountNo",
          "type": "address"
        },
        {
          "internalType": "string",
          "name": "accountHolderName",
          "type": "string"
        },
        {
          "internalType": "string",
          "name": "dpayId",
          "type": "string"
        },
        {
          "internalType": "uint256",
          "name": "phoneNo",
          "type": "uint256"
        },
        {
          "internalType": "string",
          "name": "googleId",
          "type": "string"
        },
        {
          "internalType": "bytes32",
          "name": "pin",
          "type": "bytes32"
        },
        {
          "internalType": "bool",
          "name": "isPrimaryAccount",
          "type": "bool"
        }
      ],
      "payable": false,
      "stateMutability": "view",
      "type": "function"
    },
    {
      "constant": true,
      "inputs": [],
      "name": "accountsCount",
      "outputs": [
        {
          "internalType": "uint256",
          "name": "",
          "type": "uint256"
        }
      ],
      "payable": false,
      "stateMutability": "view",
      "type": "function"
    },
    {
      "constant": true,
      "inputs": [],
      "name": "name",
      "outputs": [
        {
          "internalType": "string",
          "name": "",
          "type": "string"
        }
      ],
      "payable": false,
      "stateMutability": "view",
      "type": "function"
    },
    {
      "constant": true,
      "inputs": [
        {
          "internalType": "uint256",
          "name": "",
          "type": "uint256"
        }
      ],
      "name": "requests",
      "outputs": [
        {
          "internalType": "address",
          "name": "requestingTo",
          "type": "address"
        },
        {
          "internalType": "address payable",
          "name": "requestingFrom",
          "type": "address"
        },
        {
          "internalType": "uint256",
          "name": "amount",
          "type": "uint256"
        },
        {
          "internalType": "uint256",
          "name": "time",
          "type": "uint256"
        },
        {
          "internalType": "bool",
          "name": "isFulfilled",
          "type": "bool"
        },
        {
          "internalType": "bool",
          "name": "isRejected",
          "type": "bool"
        }
      ],
      "payable": false,
      "stateMutability": "view",
      "type": "function"
    },
    {
      "constant": true,
      "inputs": [],
      "name": "requestsCount",
      "outputs": [
        {
          "internalType": "uint256",
          "name": "",
          "type": "uint256"
        }
      ],
      "payable": false,
      "stateMutability": "view",
      "type": "function"
    },
    {
      "constant": true,
      "inputs": [
        {
          "internalType": "uint256",
          "name": "",
          "type": "uint256"
        }
      ],
      "name": "transactions",
      "outputs": [
        {
          "internalType": "address",
          "name": "sender",
          "type": "address"
        },
        {
          "internalType": "address payable",
          "name": "receiver",
          "type": "address"
        },
        {
          "internalType": "uint256",
          "name": "amount",
          "type": "uint256"
        },
        {
          "internalType": "uint256",
          "name": "time",
          "type": "uint256"
        }
      ],
      "payable": false,
      "stateMutability": "view",
      "type": "function"
    },
    {
      "constant": true,
      "inputs": [],
      "name": "transactionsCount",
      "outputs": [
        {
          "internalType": "uint256",
          "name": "",
          "type": "uint256"
        }
      ],
      "payable": false,
      "stateMutability": "view",
      "type": "function"
    },
    {
      "constant": false,
      "inputs": [
        {
          "internalType": "string",
          "name": "_accountHolderName",
          "type": "string"
        },
        {
          "internalType": "string",
          "name": "_dpayId",
          "type": "string"
        },
        {
          "internalType": "uint256",
          "name": "_phoneNo",
          "type": "uint256"
        },
        {
          "internalType": "string",
          "name": "_googleId",
          "type": "string"
        },
        {
          "internalType": "string",
          "name": "_pin",
          "type": "string"
        }
      ],
      "name": "createAccount",
      "outputs": [],
      "payable": false,
      "stateMutability": "nonpayable",
      "type": "function"
    },
    {
      "constant": false,
      "inputs": [
        {
          "internalType": "uint256",
          "name": "_accountId",
          "type": "uint256"
        },
        {
          "internalType": "string",
          "name": "_accountHolderName",
          "type": "string"
        },
        {
          "internalType": "string",
          "name": "_dpayId",
          "type": "string"
        },
        {
          "internalType": "uint256",
          "name": "_phoneNo",
          "type": "uint256"
        },
        {
          "internalType": "string",
          "name": "_oldPin",
          "type": "string"
        },
        {
          "internalType": "string",
          "name": "_newPin",
          "type": "string"
        },
        {
          "internalType": "bool",
          "name": "_isPrimaryAccount",
          "type": "bool"
        }
      ],
      "name": "editAccount",
      "outputs": [],
      "payable": false,
      "stateMutability": "nonpayable",
      "type": "function"
    },
    {
      "constant": false,
      "inputs": [
        {
          "internalType": "address payable",
          "name": "_receiver",
          "type": "address"
        },
        {
          "internalType": "string",
          "name": "_pin",
          "type": "string"
        }
      ],
      "name": "sendAmount",
      "outputs": [],
      "payable": true,
      "stateMutability": "payable",
      "type": "function"
    },
    {
      "constant": false,
      "inputs": [
        {
          "internalType": "address",
          "name": "_requestTo",
          "type": "address"
        },
        {
          "internalType": "uint256",
          "name": "_amount",
          "type": "uint256"
        }
      ],
      "name": "requestAmount",
      "outputs": [],
      "payable": false,
      "stateMutability": "nonpayable",
      "type": "function"
    },
    {
      "constant": false,
      "inputs": [
        {
          "internalType": "uint256",
          "name": "requestId",
          "type": "uint256"
        },
        {
          "internalType": "string",
          "name": "_pin",
          "type": "string"
        }
      ],
      "name": "fulfillRequestedAmount",
      "outputs": [],
      "payable": true,
      "stateMutability": "payable",
      "type": "function"
    },
    {
      "constant": false,
      "inputs": [
        {
          "internalType": "uint256",
          "name": "requestId",
          "type": "uint256"
        }
      ],
      "name": "rejectRequestedAmount",
      "outputs": [],
      "payable": false,
      "stateMutability": "nonpayable",
      "type": "function"
    },
    {
      "constant": true,
      "inputs": [
        {
          "internalType": "address",
          "name": "_accountNo",
          "type": "address"
        }
      ],
      "name": "_getAccountUsingAccountNumber",
      "outputs": [
        {
          "components": [
            {
              "internalType": "address payable",
              "name": "accountNo",
              "type": "address"
            },
            {
              "internalType": "string",
              "name": "accountHolderName",
              "type": "string"
            },
            {
              "internalType": "string",
              "name": "dpayId",
              "type": "string"
            },
            {
              "internalType": "uint256",
              "name": "phoneNo",
              "type": "uint256"
            },
            {
              "internalType": "string",
              "name": "googleId",
              "type": "string"
            },
            {
              "internalType": "bytes32",
              "name": "pin",
              "type": "bytes32"
            },
            {
              "internalType": "bool",
              "name": "isPrimaryAccount",
              "type": "bool"
            }
          ],
          "internalType": "struct DAppPay.Account",
          "name": "",
          "type": "tuple"
        }
      ],
      "payable": false,
      "stateMutability": "view",
      "type": "function"
    },
    {
      "constant": true,
      "inputs": [
        {
          "internalType": "string",
          "name": "_dpayId",
          "type": "string"
        }
      ],
      "name": "_getAccountUsingDpayId",
      "outputs": [
        {
          "components": [
            {
              "internalType": "address payable",
              "name": "accountNo",
              "type": "address"
            },
            {
              "internalType": "string",
              "name": "accountHolderName",
              "type": "string"
            },
            {
              "internalType": "string",
              "name": "dpayId",
              "type": "string"
            },
            {
              "internalType": "uint256",
              "name": "phoneNo",
              "type": "uint256"
            },
            {
              "internalType": "string",
              "name": "googleId",
              "type": "string"
            },
            {
              "internalType": "bytes32",
              "name": "pin",
              "type": "bytes32"
            },
            {
              "internalType": "bool",
              "name": "isPrimaryAccount",
              "type": "bool"
            }
          ],
          "internalType": "struct DAppPay.Account",
          "name": "",
          "type": "tuple"
        }
      ],
      "payable": false,
      "stateMutability": "view",
      "type": "function"
    },
    {
      "constant": true,
      "inputs": [
        {
          "internalType": "uint256",
          "name": "_phoneNo",
          "type": "uint256"
        }
      ],
      "name": "_getAccountUsingPhoneNumber",
      "outputs": [
        {
          "components": [
            {
              "internalType": "address payable",
              "name": "accountNo",
              "type": "address"
            },
            {
              "internalType": "string",
              "name": "accountHolderName",
              "type": "string"
            },
            {
              "internalType": "string",
              "name": "dpayId",
              "type": "string"
            },
            {
              "internalType": "uint256",
              "name": "phoneNo",
              "type": "uint256"
            },
            {
              "internalType": "string",
              "name": "googleId",
              "type": "string"
            },
            {
              "internalType": "bytes32",
              "name": "pin",
              "type": "bytes32"
            },
            {
              "internalType": "bool",
              "name": "isPrimaryAccount",
              "type": "bool"
            }
          ],
          "internalType": "struct DAppPay.Account",
          "name": "",
          "type": "tuple"
        }
      ],
      "payable": false,
      "stateMutability": "view",
      "type": "function"
    }
  ],
  "bytecode": "0x60806040523480156200001157600080fd5b506040518060400160405280600781526020017f4441707050617900000000000000000000000000000000000000000000000000815250600090805190602001906200005f9291906200006e565b5060006002819055506200011d565b828054600181600116156101000203166002900490600052602060002090601f016020900481019282601f10620000b157805160ff1916838001178555620000e2565b82800160010185558215620000e2579182015b82811115620000e1578251825591602001919060010190620000c4565b5b509050620000f19190620000f5565b5090565b6200011a91905b8082111562000116576000816000905550600101620000fc565b5090565b90565b61447d806200012d6000396000f3fe6080604052600436106100fe5760003560e01c80639ace38c211610095578063e9cfff7f11610064578063e9cfff7f14610345578063f2a40db814610382578063f7fa1456146103c5578063fbfa4b7f146103ee578063fd99a74614610419576100fe565b80639ace38c21461028a5780639cf08314146102ca578063cedfe204146102f3578063e37a74ff1461031c576100fe565b806327538b30116100d157806327538b30146101c457806381d12c58146101ef5780638cca8a501461023157806394708bec1461024d576100fe565b806306fdde03146101035780630894777d1461012e57806311a421051461016b5780631f75a63514610187575b600080fd5b34801561010f57600080fd5b50610118610444565b6040516101259190613f81565b60405180910390f35b34801561013a57600080fd5b50610155600480360361015091908101906130d4565b6104e2565b6040516101629190613f66565b60405180910390f35b610185600480360361018091908101906130fd565b610502565b005b34801561019357600080fd5b506101ae60048036036101a991908101906130d4565b61080a565b6040516101bb9190614203565b60405180910390f35b3480156101d057600080fd5b506101d9610bd5565b6040516101e69190614225565b60405180910390f35b3480156101fb57600080fd5b50610216600480360361021191908101906132a5565b610bdb565b60405161022896959493929190613f05565b60405180910390f35b61024b600480360361024691908101906132ce565b610c71565b005b34801561025957600080fd5b50610274600480360361026f919081019061318d565b611093565b6040516102819190614203565b60405180910390f35b34801561029657600080fd5b506102b160048036036102ac91908101906132a5565b61142d565b6040516102c19493929190613ec0565b60405180910390f35b3480156102d657600080fd5b506102f160048036036102ec91908101906131ce565b61149d565b005b3480156102ff57600080fd5b5061031a600480360361031591908101906132a5565b6118dd565b005b34801561032857600080fd5b50610343600480360361033e9190810190613151565b611cf0565b005b34801561035157600080fd5b5061036c600480360361036791908101906132a5565b611ffa565b6040516103799190614203565b60405180910390f35b34801561038e57600080fd5b506103a960048036036103a491908101906132a5565b612379565b6040516103bc9796959493929190613de9565b60405180910390f35b3480156103d157600080fd5b506103ec60048036036103e79190810190613322565b6125b0565b005b3480156103fa57600080fd5b50610403612d82565b6040516104109190614225565b60405180910390f35b34801561042557600080fd5b5061042e612d88565b60405161043b9190614225565b60405180910390f35b60008054600181600116156101000203166002900480601f0160208091040260200160405190810160405280929190818152602001828054600181600116156101000203166002900480156104da5780601f106104af576101008083540402835291602001916104da565b820191906000526020600020905b8154815290600101906020018083116104bd57829003601f168201915b505050505081565b60016020528060005260406000206000915054906101000a900460ff1681565b600160003373ffffffffffffffffffffffffffffffffffffffff1673ffffffffffffffffffffffffffffffffffffffff16815260200190815260200160002060009054906101000a900460ff1661058e576040517f08c379a000000000000000000000000000000000000000000000000000000000815260040161058590614043565b60405180910390fd5b600160008373ffffffffffffffffffffffffffffffffffffffff1673ffffffffffffffffffffffffffffffffffffffff16815260200190815260200160002060009054906101000a900460ff1661061a576040517f08c379a000000000000000000000000000000000000000000000000000000000815260040161061190614083565b60405180910390fd5b808051906020012061062b33612d8e565b1461066b576040517f08c379a000000000000000000000000000000000000000000000000000000000815260040161066290614003565b60405180910390fd5b8173ffffffffffffffffffffffffffffffffffffffff166108fc349081150290604051600060405180830381858888f193505050501580156106b1573d6000803e3d6000fd5b5060066000815480929190600101919050555060405180608001604052803373ffffffffffffffffffffffffffffffffffffffff1681526020018373ffffffffffffffffffffffffffffffffffffffff1681526020013481526020014281525060076000600654815260200190815260200160002060008201518160000160006101000a81548173ffffffffffffffffffffffffffffffffffffffff021916908373ffffffffffffffffffffffffffffffffffffffff16021790555060208201518160010160006101000a81548173ffffffffffffffffffffffffffffffffffffffff021916908373ffffffffffffffffffffffffffffffffffffffff16021790555060408201518160020155606082015181600301559050507fb688dba62d2365cd04ed933cad5a6de86bedb1459b36d1bbe954a49b254c1edc3383346040516107fe93929190613cc6565b60405180910390a15050565b610812612ec9565b600160003373ffffffffffffffffffffffffffffffffffffffff1673ffffffffffffffffffffffffffffffffffffffff16815260200190815260200160002060009054906101000a900460ff1661089e576040517f08c379a000000000000000000000000000000000000000000000000000000000815260040161089590614043565b60405180910390fd5b6000600190505b6002548111610bce578273ffffffffffffffffffffffffffffffffffffffff166003600083815260200190815260200160002060000160009054906101000a900473ffffffffffffffffffffffffffffffffffffffff1673ffffffffffffffffffffffffffffffffffffffff161415610bc157610920612ec9565b600360008381526020019081526020016000206040518060e00160405290816000820160009054906101000a900473ffffffffffffffffffffffffffffffffffffffff1673ffffffffffffffffffffffffffffffffffffffff1673ffffffffffffffffffffffffffffffffffffffff168152602001600182018054600181600116156101000203166002900480601f016020809104026020016040519081016040528092919081815260200182805460018160011615610100020316600290048015610a2d5780601f10610a0257610100808354040283529160200191610a2d565b820191906000526020600020905b815481529060010190602001808311610a1057829003601f168201915b50505050508152602001600282018054600181600116156101000203166002900480601f016020809104026020016040519081016040528092919081815260200182805460018160011615610100020316600290048015610acf5780601f10610aa457610100808354040283529160200191610acf565b820191906000526020600020905b815481529060010190602001808311610ab257829003601f168201915b5050505050815260200160038201548152602001600482018054600181600116156101000203166002900480601f016020809104026020016040519081016040528092919081815260200182805460018160011615610100020316600290048015610b7b5780601f10610b5057610100808354040283529160200191610b7b565b820191906000526020600020905b815481529060010190602001808311610b5e57829003601f168201915b50505050508152602001600582015481526020016006820160009054906101000a900460ff16151515158152505090508060a00160008019168152508092505050610bd0565b80806001019150506108a5565b505b919050565b60025481565b60056020528060005260406000206000915090508060000160009054906101000a900473ffffffffffffffffffffffffffffffffffffffff16908060010160009054906101000a900473ffffffffffffffffffffffffffffffffffffffff16908060020154908060030154908060040160009054906101000a900460ff16908060040160019054906101000a900460ff16905086565b600160003373ffffffffffffffffffffffffffffffffffffffff1673ffffffffffffffffffffffffffffffffffffffff16815260200190815260200160002060009054906101000a900460ff16610cfd576040517f08c379a0000000000000000000000000000000000000000000000000000000008152600401610cf490614043565b60405180910390fd5b600082118015610d0f57506004548211155b610d4e576040517f08c379a0000000000000000000000000000000000000000000000000000000008152600401610d4590613fa3565b60405180910390fd5b610d56612f21565b600560008481526020019081526020016000206040518060c00160405290816000820160009054906101000a900473ffffffffffffffffffffffffffffffffffffffff1673ffffffffffffffffffffffffffffffffffffffff1673ffffffffffffffffffffffffffffffffffffffff1681526020016001820160009054906101000a900473ffffffffffffffffffffffffffffffffffffffff1673ffffffffffffffffffffffffffffffffffffffff1673ffffffffffffffffffffffffffffffffffffffff16815260200160028201548152602001600382015481526020016004820160009054906101000a900460ff161515151581526020016004820160019054906101000a900460ff16151515158152505090508060a0015115610eb1576040517f08c379a0000000000000000000000000000000000000000000000000000000008152600401610ea890613fc3565b60405180910390fd5b3373ffffffffffffffffffffffffffffffffffffffff16816000015173ffffffffffffffffffffffffffffffffffffffff1614610f23576040517f08c379a0000000000000000000000000000000000000000000000000000000008152600401610f1a906141a3565b60405180910390fd5b610f31816020015183610502565b6001816080019015159081151581525050806005600085815260200190815260200160002060008201518160000160006101000a81548173ffffffffffffffffffffffffffffffffffffffff021916908373ffffffffffffffffffffffffffffffffffffffff16021790555060208201518160010160006101000a81548173ffffffffffffffffffffffffffffffffffffffff021916908373ffffffffffffffffffffffffffffffffffffffff160217905550604082015181600201556060820151816003015560808201518160040160006101000a81548160ff02191690831515021790555060a08201518160040160016101000a81548160ff0219169083151502179055509050507f6d291ea45d14e9c320ab764e4119271af1d7ccaa2dc42addb356a52276f8967b81600001518260200151836040015184608001518560a00151604051611086959493929190613e6d565b60405180910390a1505050565b61109b612ec9565b600160003373ffffffffffffffffffffffffffffffffffffffff1673ffffffffffffffffffffffffffffffffffffffff16815260200190815260200160002060009054906101000a900460ff16611127576040517f08c379a000000000000000000000000000000000000000000000000000000000815260040161111e90614043565b60405180910390fd5b6000600190505b6002548111611426578280519060200120600360008381526020019081526020016000206002016040516111629190613caf565b6040518091039020141561141957611178612ec9565b600360008381526020019081526020016000206040518060e00160405290816000820160009054906101000a900473ffffffffffffffffffffffffffffffffffffffff1673ffffffffffffffffffffffffffffffffffffffff1673ffffffffffffffffffffffffffffffffffffffff168152602001600182018054600181600116156101000203166002900480601f0160208091040260200160405190810160405280929190818152602001828054600181600116156101000203166002900480156112855780601f1061125a57610100808354040283529160200191611285565b820191906000526020600020905b81548152906001019060200180831161126857829003601f168201915b50505050508152602001600282018054600181600116156101000203166002900480601f0160208091040260200160405190810160405280929190818152602001828054600181600116156101000203166002900480156113275780601f106112fc57610100808354040283529160200191611327565b820191906000526020600020905b81548152906001019060200180831161130a57829003601f168201915b5050505050815260200160038201548152602001600482018054600181600116156101000203166002900480601f0160208091040260200160405190810160405280929190818152602001828054600181600116156101000203166002900480156113d35780601f106113a8576101008083540402835291602001916113d3565b820191906000526020600020905b8154815290600101906020018083116113b657829003601f168201915b50505050508152602001600582015481526020016006820160009054906101000a900460ff16151515158152505090508060a00160008019168152508092505050611428565b808060010191505061112e565b505b919050565b60076020528060005260406000206000915090508060000160009054906101000a900473ffffffffffffffffffffffffffffffffffffffff16908060010160009054906101000a900473ffffffffffffffffffffffffffffffffffffffff16908060020154908060030154905084565b600160003373ffffffffffffffffffffffffffffffffffffffff1673ffffffffffffffffffffffffffffffffffffffff16815260200190815260200160002060009054906101000a900460ff161561152a576040517f08c379a000000000000000000000000000000000000000000000000000000000815260040161152190614143565b60405180910390fd5b600073ffffffffffffffffffffffffffffffffffffffff163373ffffffffffffffffffffffffffffffffffffffff16141561159a576040517f08c379a0000000000000000000000000000000000000000000000000000000008152600401611591906141c3565b60405180910390fd5b60008551116115de576040517f08c379a00000000000000000000000000000000000000000000000000000000081526004016115d590613fe3565b60405180910390fd5b6000845111611622576040517f08c379a0000000000000000000000000000000000000000000000000000000008152600401611619906140c3565b60405180910390fd5b6000831415611666576040517f08c379a000000000000000000000000000000000000000000000000000000000815260040161165d90614063565b60405180910390fd5b60008251116116aa576040517f08c379a00000000000000000000000000000000000000000000000000000000081526004016116a190614103565b60405180910390fd5b60048151146116ee576040517f08c379a00000000000000000000000000000000000000000000000000000000081526004016116e5906140a3565b60405180910390fd5b6002600081548092919060010191905055506040518060e001604052803373ffffffffffffffffffffffffffffffffffffffff168152602001868152602001858152602001848152602001838152602001828051906020012081526020016000151581525060036000600254815260200190815260200160002060008201518160000160006101000a81548173ffffffffffffffffffffffffffffffffffffffff021916908373ffffffffffffffffffffffffffffffffffffffff16021790555060208201518160010190805190602001906117cb929190612f87565b5060408201518160020190805190602001906117e8929190612f87565b5060608201518160030155608082015181600401908051906020019061180f929190612f87565b5060a0820151816005015560c08201518160060160006101000a81548160ff02191690831515021790555090505060018060003373ffffffffffffffffffffffffffffffffffffffff1673ffffffffffffffffffffffffffffffffffffffff16815260200190815260200160002060006101000a81548160ff0219169083151502179055507fe9ae386750e8e281f265a0c5925f143c64aa1f316db25c5187366260bbd7cf50338686868660006040516118ce96959493929190613cfd565b60405180910390a15050505050565b600160003373ffffffffffffffffffffffffffffffffffffffff1673ffffffffffffffffffffffffffffffffffffffff16815260200190815260200160002060009054906101000a900460ff16611969576040517f08c379a000000000000000000000000000000000000000000000000000000000815260040161196090614043565b60405180910390fd5b60008111801561197b57506004548111155b6119ba576040517f08c379a00000000000000000000000000000000000000000000000000000000081526004016119b190613fa3565b60405180910390fd5b6119c2612f21565b600560008381526020019081526020016000206040518060c00160405290816000820160009054906101000a900473ffffffffffffffffffffffffffffffffffffffff1673ffffffffffffffffffffffffffffffffffffffff1673ffffffffffffffffffffffffffffffffffffffff1681526020016001820160009054906101000a900473ffffffffffffffffffffffffffffffffffffffff1673ffffffffffffffffffffffffffffffffffffffff1673ffffffffffffffffffffffffffffffffffffffff16815260200160028201548152602001600382015481526020016004820160009054906101000a900460ff161515151581526020016004820160019054906101000a900460ff1615151515815250509050806080015115611b1d576040517f08c379a0000000000000000000000000000000000000000000000000000000008152600401611b14906140e3565b60405180910390fd5b3373ffffffffffffffffffffffffffffffffffffffff16816000015173ffffffffffffffffffffffffffffffffffffffff1614611b8f576040517f08c379a0000000000000000000000000000000000000000000000000000000008152600401611b86906141a3565b60405180910390fd5b60018160a0019015159081151581525050806005600084815260200190815260200160002060008201518160000160006101000a81548173ffffffffffffffffffffffffffffffffffffffff021916908373ffffffffffffffffffffffffffffffffffffffff16021790555060208201518160010160006101000a81548173ffffffffffffffffffffffffffffffffffffffff021916908373ffffffffffffffffffffffffffffffffffffffff160217905550604082015181600201556060820151816003015560808201518160040160006101000a81548160ff02191690831515021790555060a08201518160040160016101000a81548160ff0219169083151502179055509050507f9f606a536304aa1cd828e173187ec5dc1cf719221b26f2f0da4d6b1b7441049d81600001518260200151836040015184608001518560a00151604051611ce4959493929190613e6d565b60405180910390a15050565b600160003373ffffffffffffffffffffffffffffffffffffffff1673ffffffffffffffffffffffffffffffffffffffff16815260200190815260200160002060009054906101000a900460ff16611d7c576040517f08c379a0000000000000000000000000000000000000000000000000000000008152600401611d7390614043565b60405180910390fd5b600160008373ffffffffffffffffffffffffffffffffffffffff1673ffffffffffffffffffffffffffffffffffffffff16815260200190815260200160002060009054906101000a900460ff16611e08576040517f08c379a0000000000000000000000000000000000000000000000000000000008152600401611dff90614183565b60405180910390fd5b60008111611e4b576040517f08c379a0000000000000000000000000000000000000000000000000000000008152600401611e42906141e3565b60405180910390fd5b6004600081548092919060010191905055506040518060c001604052808373ffffffffffffffffffffffffffffffffffffffff1681526020013373ffffffffffffffffffffffffffffffffffffffff1681526020018281526020014281526020016000151581526020016000151581525060056000600454815260200190815260200160002060008201518160000160006101000a81548173ffffffffffffffffffffffffffffffffffffffff021916908373ffffffffffffffffffffffffffffffffffffffff16021790555060208201518160010160006101000a81548173ffffffffffffffffffffffffffffffffffffffff021916908373ffffffffffffffffffffffffffffffffffffffff160217905550604082015181600201556060820151816003015560808201518160040160006101000a81548160ff02191690831515021790555060a08201518160040160016101000a81548160ff0219169083151502179055509050507fe366e74e45e6b3fc5fbdf9120f43b2ec59a42e6c2999ed9108ba6873bd637c1b823383600080604051611fee959493929190613e6d565b60405180910390a15050565b612002612ec9565b600160003373ffffffffffffffffffffffffffffffffffffffff1673ffffffffffffffffffffffffffffffffffffffff16815260200190815260200160002060009054906101000a900460ff1661208e576040517f08c379a000000000000000000000000000000000000000000000000000000000815260040161208590614043565b60405180910390fd5b6000600190505b6002548111612372578260036000838152602001908152602001600020600301541415612365576120c4612ec9565b600360008381526020019081526020016000206040518060e00160405290816000820160009054906101000a900473ffffffffffffffffffffffffffffffffffffffff1673ffffffffffffffffffffffffffffffffffffffff1673ffffffffffffffffffffffffffffffffffffffff168152602001600182018054600181600116156101000203166002900480601f0160208091040260200160405190810160405280929190818152602001828054600181600116156101000203166002900480156121d15780601f106121a6576101008083540402835291602001916121d1565b820191906000526020600020905b8154815290600101906020018083116121b457829003601f168201915b50505050508152602001600282018054600181600116156101000203166002900480601f0160208091040260200160405190810160405280929190818152602001828054600181600116156101000203166002900480156122735780601f1061224857610100808354040283529160200191612273565b820191906000526020600020905b81548152906001019060200180831161225657829003601f168201915b5050505050815260200160038201548152602001600482018054600181600116156101000203166002900480601f01602080910402602001604051908101604052809291908181526020018280546001816001161561010002031660029004801561231f5780601f106122f45761010080835404028352916020019161231f565b820191906000526020600020905b81548152906001019060200180831161230257829003601f168201915b50505050508152602001600582015481526020016006820160009054906101000a900460ff16151515158152505090508060a00160008019168152508092505050612374565b8080600101915050612095565b505b919050565b60036020528060005260406000206000915090508060000160009054906101000a900473ffffffffffffffffffffffffffffffffffffffff1690806001018054600181600116156101000203166002900480601f01602080910402602001604051908101604052809291908181526020018280546001816001161561010002031660029004801561244b5780601f106124205761010080835404028352916020019161244b565b820191906000526020600020905b81548152906001019060200180831161242e57829003601f168201915b505050505090806002018054600181600116156101000203166002900480601f0160208091040260200160405190810160405280929190818152602001828054600181600116156101000203166002900480156124e95780601f106124be576101008083540402835291602001916124e9565b820191906000526020600020905b8154815290600101906020018083116124cc57829003601f168201915b505050505090806003015490806004018054600181600116156101000203166002900480601f01602080910402602001604051908101604052809291908181526020018280546001816001161561010002031660029004801561258d5780601f106125625761010080835404028352916020019161258d565b820191906000526020600020905b81548152906001019060200180831161257057829003601f168201915b5050505050908060050154908060060160009054906101000a900460ff16905087565b600160003373ffffffffffffffffffffffffffffffffffffffff1673ffffffffffffffffffffffffffffffffffffffff16815260200190815260200160002060009054906101000a900460ff1661263c576040517f08c379a000000000000000000000000000000000000000000000000000000000815260040161263390614043565b60405180910390fd5b60008711801561264e57506002548711155b61268d576040517f08c379a000000000000000000000000000000000000000000000000000000000815260040161268490614023565b60405180910390fd5b612695612ec9565b600360008981526020019081526020016000206040518060e00160405290816000820160009054906101000a900473ffffffffffffffffffffffffffffffffffffffff1673ffffffffffffffffffffffffffffffffffffffff1673ffffffffffffffffffffffffffffffffffffffff168152602001600182018054600181600116156101000203166002900480601f0160208091040260200160405190810160405280929190818152602001828054600181600116156101000203166002900480156127a25780601f10612777576101008083540402835291602001916127a2565b820191906000526020600020905b81548152906001019060200180831161278557829003601f168201915b50505050508152602001600282018054600181600116156101000203166002900480601f0160208091040260200160405190810160405280929190818152602001828054600181600116156101000203166002900480156128445780601f1061281957610100808354040283529160200191612844565b820191906000526020600020905b81548152906001019060200180831161282757829003601f168201915b5050505050815260200160038201548152602001600482018054600181600116156101000203166002900480601f0160208091040260200160405190810160405280929190818152602001828054600181600116156101000203166002900480156128f05780601f106128c5576101008083540402835291602001916128f0565b820191906000526020600020905b8154815290600101906020018083116128d357829003601f168201915b50505050508152602001600582015481526020016006820160009054906101000a900460ff1615151515815250509050838051906020012061293133612d8e565b14612971576040517f08c379a000000000000000000000000000000000000000000000000000000000815260040161296890614003565b60405180910390fd5b600073ffffffffffffffffffffffffffffffffffffffff163373ffffffffffffffffffffffffffffffffffffffff1614156129e1576040517f08c379a00000000000000000000000000000000000000000000000000000000081526004016129d8906141c3565b60405180910390fd5b6000875111612a25576040517f08c379a0000000000000000000000000000000000000000000000000000000008152600401612a1c90613fe3565b60405180910390fd5b6000865111612a69576040517f08c379a0000000000000000000000000000000000000000000000000000000008152600401612a60906140c3565b60405180910390fd5b6000851415612aad576040517f08c379a0000000000000000000000000000000000000000000000000000000008152600401612aa490614063565b60405180910390fd5b6004845114612af1576040517f08c379a0000000000000000000000000000000000000000000000000000000008152600401612ae8906140a3565b60405180910390fd5b6004835114612b35576040517f08c379a0000000000000000000000000000000000000000000000000000000008152600401612b2c906140a3565b60405180910390fd5b600015158215151480612b4c575060011515821515145b612b8b576040517f08c379a0000000000000000000000000000000000000000000000000000000008152600401612b8290614123565b60405180910390fd5b3373ffffffffffffffffffffffffffffffffffffffff16816000015173ffffffffffffffffffffffffffffffffffffffff1614612bfd576040517f08c379a0000000000000000000000000000000000000000000000000000000008152600401612bf490614163565b60405180910390fd5b8681602001819052508581604001819052508481606001818152505082805190602001208160a0018181525050818160c001901515908115158152505080600360008a815260200190815260200160002060008201518160000160006101000a81548173ffffffffffffffffffffffffffffffffffffffff021916908373ffffffffffffffffffffffffffffffffffffffff1602179055506020820151816001019080519060200190612cb1929190612f87565b506040820151816002019080519060200190612cce929190612f87565b50606082015181600301556080820151816004019080519060200190612cf5929190612f87565b5060a0820151816005015560c08201518160060160006101000a81548160ff0219169083151502179055509050507f994b429070e79ef95d33f8bb9f378447fded8451498acb3a4d6af45095c508753382602001518360400151846060015185608001518660c00151604051612d7096959493929190613d73565b60405180910390a15050505050505050565b60045481565b60065481565b6000600160003373ffffffffffffffffffffffffffffffffffffffff1673ffffffffffffffffffffffffffffffffffffffff16815260200190815260200160002060009054906101000a900460ff16612e1c576040517f08c379a0000000000000000000000000000000000000000000000000000000008152600401612e1390614043565b60405180910390fd5b6000600190505b6002548111612ec2578273ffffffffffffffffffffffffffffffffffffffff166003600083815260200190815260200160002060000160009054906101000a900473ffffffffffffffffffffffffffffffffffffffff1673ffffffffffffffffffffffffffffffffffffffff161415612eb5576003600082815260200190815260200160002060050154915050612ec4565b8080600101915050612e23565b505b919050565b6040518060e00160405280600073ffffffffffffffffffffffffffffffffffffffff16815260200160608152602001606081526020016000815260200160608152602001600080191681526020016000151581525090565b6040518060c00160405280600073ffffffffffffffffffffffffffffffffffffffff168152602001600073ffffffffffffffffffffffffffffffffffffffff16815260200160008152602001600081526020016000151581526020016000151581525090565b828054600181600116156101000203166002900490600052602060002090601f016020900481019282601f10612fc857805160ff1916838001178555612ff6565b82800160010185558215612ff6579182015b82811115612ff5578251825591602001919060010190612fda565b5b5090506130039190613007565b5090565b61302991905b8082111561302557600081600090555060010161300d565b5090565b90565b60008135905061303b816143de565b92915050565b600081359050613050816143f5565b92915050565b6000813590506130658161440c565b92915050565b600082601f83011261307c57600080fd5b813561308f61308a8261426d565b614240565b915080825260208301602083018583830111156130ab57600080fd5b6130b683828461438b565b50505092915050565b6000813590506130ce81614423565b92915050565b6000602082840312156130e657600080fd5b60006130f48482850161302c565b91505092915050565b6000806040838503121561311057600080fd5b600061311e85828601613041565b925050602083013567ffffffffffffffff81111561313b57600080fd5b6131478582860161306b565b9150509250929050565b6000806040838503121561316457600080fd5b60006131728582860161302c565b9250506020613183858286016130bf565b9150509250929050565b60006020828403121561319f57600080fd5b600082013567ffffffffffffffff8111156131b957600080fd5b6131c58482850161306b565b91505092915050565b600080600080600060a086880312156131e657600080fd5b600086013567ffffffffffffffff81111561320057600080fd5b61320c8882890161306b565b955050602086013567ffffffffffffffff81111561322957600080fd5b6132358882890161306b565b9450506040613246888289016130bf565b935050606086013567ffffffffffffffff81111561326357600080fd5b61326f8882890161306b565b925050608086013567ffffffffffffffff81111561328c57600080fd5b6132988882890161306b565b9150509295509295909350565b6000602082840312156132b757600080fd5b60006132c5848285016130bf565b91505092915050565b600080604083850312156132e157600080fd5b60006132ef858286016130bf565b925050602083013567ffffffffffffffff81111561330c57600080fd5b6133188582860161306b565b9150509250929050565b600080600080600080600060e0888a03121561333d57600080fd5b600061334b8a828b016130bf565b975050602088013567ffffffffffffffff81111561336857600080fd5b6133748a828b0161306b565b965050604088013567ffffffffffffffff81111561339157600080fd5b61339d8a828b0161306b565b95505060606133ae8a828b016130bf565b945050608088013567ffffffffffffffff8111156133cb57600080fd5b6133d78a828b0161306b565b93505060a088013567ffffffffffffffff8111156133f457600080fd5b6134008a828b0161306b565b92505060c06134118a828b01613056565b91505092959891949750929550565b61342981614355565b82525050565b61343881614303565b82525050565b61344781614303565b82525050565b613456816142f1565b82525050565b61346581614315565b82525050565b61347481614315565b82525050565b61348381614321565b82525050565b61349281614321565b82525050565b6000815460018116600081146134b557600181146134da5761351e565b607f60028304166134c681876142c4565b955060ff198316865280860193505061351e565b600282046134e881876142c4565b95506134f385614299565b60005b82811015613515578154818901526001820191506020810190506134f6565b82880195505050505b505092915050565b6000613531826142b9565b61353b81856142e0565b935061354b81856020860161439a565b613554816143cd565b840191505092915050565b600061356a826142ae565b61357481856142cf565b935061358481856020860161439a565b61358d816143cd565b840191505092915050565b60006135a3826142ae565b6135ad81856142e0565b93506135bd81856020860161439a565b6135c6816143cd565b840191505092915050565b60006135de6012836142e0565b91507f496e76616c6964207265717565737420696400000000000000000000000000006000830152602082019050919050565b600061361e601b836142e0565b91507f5265717565737420697320616c72656164792072656a656374656400000000006000830152602082019050919050565b600061365e601f836142e0565b91507f4163636f756e7420686f6c646572206e616d65206973207265717569726564006000830152602082019050919050565b600061369e600d836142e0565b91507f50696e2069732077726f6e6721000000000000000000000000000000000000006000830152602082019050919050565b60006136de6012836142e0565b91507f4163636f756e7420697320696e76616c696400000000000000000000000000006000830152602082019050919050565b600061371e6021836142e0565b91507f53656e646572206163636f756e74206e756d62657220697320696e76616c696460008301527f21000000000000000000000000000000000000000000000000000000000000006020830152604082019050919050565b6000613784602f836142e0565b91507f412076616c6964206163636f756e742070686f6e65206e6f283130206469676960008301527f74732920697320726571756972656400000000000000000000000000000000006020830152604082019050919050565b60006137ea6023836142e0565b91507f5265636569766572206163636f756e74206e756d62657220697320696e76616c60008301527f69642100000000000000000000000000000000000000000000000000000000006020830152604082019050919050565b60006138506027836142e0565b91507f56616c6964206163636f756e742070696e28342064696769747329206973207260008301527f65717569726564000000000000000000000000000000000000000000000000006020830152604082019050919050565b60006138b6601b836142e0565b91507f4163636f756e74206470617920696420697320726571756972656400000000006000830152602082019050919050565b60006138f6601c836142e0565b91507f5265717565737420697320616c72656164792066756c66696c6c6564000000006000830152602082019050919050565b6000613936601d836142e0565b91507f4163636f756e7420676f6f676c652069642069732072657175697265640000006000830152602082019050919050565b60006139766022836142e0565b91507f5072696d617279206163636f756e74207374617475732069732072657175697260008301527f65640000000000000000000000000000000000000000000000000000000000006020830152604082019050919050565b60006139dc601e836142e0565b91507f4163636f756e74206e756d62657220616c7265616479206578697374732100006000830152602082019050919050565b6000613a1c6030836142e0565b91507f4f6e6c79206163636f756e7420686f6c6465722063616e20656469742074686560008301527f206163636f756e742064657461696c73000000000000000000000000000000006020830152604082019050919050565b6000613a826024836142e0565b91507f526571756573746564206163636f756e74206e756d62657220697320696e766160008301527f6c696421000000000000000000000000000000000000000000000000000000006020830152604082019050919050565b6000613ae86022836142e0565b91507f526571756573746564206163636f756e74206e6f2e206973206e6f7420796f7560008301527f72730000000000000000000000000000000000000000000000000000000000006020830152604082019050919050565b6000613b4e6017836142e0565b91507f4163636f756e74206e6f2e2069732072657175697265640000000000000000006000830152602082019050919050565b6000613b8e6029836142e0565b91507f52657175657374656420616d6f756e74206d757374206265206d6f726520746860008301527f616e2030204554482100000000000000000000000000000000000000000000006020830152604082019050919050565b600060e083016000830151613bff600086018261342f565b5060208301518482036020860152613c17828261355f565b91505060408301518482036040860152613c31828261355f565b9150506060830151613c466060860182613c91565b5060808301518482036080860152613c5e828261355f565b91505060a0830151613c7360a086018261347a565b5060c0830151613c8660c086018261345c565b508091505092915050565b613c9a8161434b565b82525050565b613ca98161434b565b82525050565b6000613cbb8284613498565b915081905092915050565b6000606082019050613cdb6000830186613420565b613ce8602083018561343e565b613cf56040830184613ca0565b949350505050565b600060c082019050613d12600083018961343e565b8181036020830152613d248188613526565b90508181036040830152613d388187613526565b9050613d476060830186613ca0565b8181036080830152613d598185613526565b9050613d6860a083018461346b565b979650505050505050565b600060c082019050613d88600083018961343e565b8181036020830152613d9a8188613598565b90508181036040830152613dae8187613598565b9050613dbd6060830186613ca0565b8181036080830152613dcf8185613598565b9050613dde60a083018461346b565b979650505050505050565b600060e082019050613dfe600083018a61343e565b8181036020830152613e108189613598565b90508181036040830152613e248188613598565b9050613e336060830187613ca0565b8181036080830152613e458186613598565b9050613e5460a0830185613489565b613e6160c083018461346b565b98975050505050505050565b600060a082019050613e82600083018861344d565b613e8f602083018761343e565b613e9c6040830186613ca0565b613ea9606083018561346b565b613eb6608083018461346b565b9695505050505050565b6000608082019050613ed5600083018761344d565b613ee2602083018661343e565b613eef6040830185613ca0565b613efc6060830184613ca0565b95945050505050565b600060c082019050613f1a600083018961344d565b613f27602083018861343e565b613f346040830187613ca0565b613f416060830186613ca0565b613f4e608083018561346b565b613f5b60a083018461346b565b979650505050505050565b6000602082019050613f7b600083018461346b565b92915050565b60006020820190508181036000830152613f9b8184613598565b905092915050565b60006020820190508181036000830152613fbc816135d1565b9050919050565b60006020820190508181036000830152613fdc81613611565b9050919050565b60006020820190508181036000830152613ffc81613651565b9050919050565b6000602082019050818103600083015261401c81613691565b9050919050565b6000602082019050818103600083015261403c816136d1565b9050919050565b6000602082019050818103600083015261405c81613711565b9050919050565b6000602082019050818103600083015261407c81613777565b9050919050565b6000602082019050818103600083015261409c816137dd565b9050919050565b600060208201905081810360008301526140bc81613843565b9050919050565b600060208201905081810360008301526140dc816138a9565b9050919050565b600060208201905081810360008301526140fc816138e9565b9050919050565b6000602082019050818103600083015261411c81613929565b9050919050565b6000602082019050818103600083015261413c81613969565b9050919050565b6000602082019050818103600083015261415c816139cf565b9050919050565b6000602082019050818103600083015261417c81613a0f565b9050919050565b6000602082019050818103600083015261419c81613a75565b9050919050565b600060208201905081810360008301526141bc81613adb565b9050919050565b600060208201905081810360008301526141dc81613b41565b9050919050565b600060208201905081810360008301526141fc81613b81565b9050919050565b6000602082019050818103600083015261421d8184613be7565b905092915050565b600060208201905061423a6000830184613ca0565b92915050565b6000604051905081810181811067ffffffffffffffff8211171561426357600080fd5b8060405250919050565b600067ffffffffffffffff82111561428457600080fd5b601f19601f8301169050602081019050919050565b60008190508160005260206000209050919050565b600081519050919050565b600081519050919050565b600081905092915050565b600082825260208201905092915050565b600082825260208201905092915050565b60006142fc8261432b565b9050919050565b600061430e8261432b565b9050919050565b60008115159050919050565b6000819050919050565b600073ffffffffffffffffffffffffffffffffffffffff82169050919050565b6000819050919050565b600061436082614367565b9050919050565b600061437282614379565b9050919050565b60006143848261432b565b9050919050565b82818337600083830152505050565b60005b838110156143b857808201518184015260208101905061439d565b838111156143c7576000848401525b50505050565b6000601f19601f8301169050919050565b6143e7816142f1565b81146143f257600080fd5b50565b6143fe81614303565b811461440957600080fd5b50565b61441581614315565b811461442057600080fd5b50565b61442c8161434b565b811461443757600080fd5b5056fea365627a7a72315820ab27f4a70a099cfd8486342179cf2444848d1bb421e2d86ad8a3fdb431b6e2e66c6578706572696d656e74616cf564736f6c63430005100040",
  "source": "pragma solidity ^0.5.0;\r\npragma experimental ABIEncoderV2;\r\n\r\ncontract DAppPay{\r\n\tstring public name;\r\n\r\n\t/* Store accounts */\r\n\tmapping(address => bool) public accountNumbers;\r\n\tuint public accountsCount;\r\n\tmapping(uint => Account) public accounts;\r\n\tstruct Account{\r\n\t\taddress payable accountNo;\r\n\t\tstring accountHolderName;\r\n\t\tstring dpayId;\r\n\t\tuint phoneNo;\r\n\t\tstring googleId;\r\n\t\tbytes32 pin;\r\n\t\tbool isPrimaryAccount;\r\n\t}\r\n\r\n\t/* Store request-money */\r\n\tuint public requestsCount;\r\n\tmapping(uint => Request) public requests;\r\n\tstruct Request{\r\n\t\taddress requestingTo;\r\n\t\taddress payable requestingFrom;\r\n\t\tuint amount;\r\n\t\tuint time;\r\n\t\tbool isFulfilled;\r\n\t\tbool isRejected;\r\n\t}\r\n\r\n\t/* Store transaction history */\r\n\tuint public transactionsCount;\r\n\tmapping(uint => Transaction) public transactions;\r\n\tstruct Transaction{\r\n\t\taddress sender;\r\n\t\taddress payable receiver;\r\n\t\tuint amount;\r\n\t\tuint time;\r\n\t}\r\n\r\n\tconstructor() public{\r\n\t\tname = \"DAppPay\";\r\n\t\taccountsCount = 0;\r\n\t}\r\n\r\n\t/* Modifiers */\r\n\tmodifier onlyExistingAccount{\r\n\t\trequire(accountNumbers[msg.sender], 'Sender account number is invalid!');\r\n      \t_;\r\n\t}\r\n\r\n\tmodifier onlyUniqiueAccount{\r\n\t\trequire(!accountNumbers[msg.sender], 'Account number already exists!');\r\n      \t_;\r\n\t}\r\n\r\n\t// TODO Make sure dpay id is unique\r\n\r\n\t\r\n\t/* Events */\r\n\tevent AccountCreated(address payable accountNo, string accountHolderName, string dpayId, uint phoneNo, string googleId, bool isPrimaryAccount);\r\n\tevent AccountEdited(address payable accountNo, string accountHolderName, string dpayId, uint phoneNo, string googleId, bool isPrimaryAccount);\r\n\tevent AmmountTransfered(address sender, address payable receiver, uint amount);\r\n\tevent AmmountRequested(address requestingTo, address payable requestingFrom, uint amount, bool isFulfilled, bool isRejected);\r\n\tevent FulFillAmmountRequested(address requestingTo, address payable requestingFrom, uint amount, bool isFulfilled, bool isRejected);\r\n\tevent RejectAmmountRequested(address requestingTo, address payable requestingFrom, uint amount, bool isFulfilled, bool isRejected);\r\n\r\n\t/* Main Functions */\r\n\tfunction createAccount(string memory _accountHolderName, string memory _dpayId, uint _phoneNo, string memory _googleId, string memory _pin) public onlyUniqiueAccount{\r\n\t\t// Make sure the inputs exists\r\n\t\trequire(msg.sender != address(0x0), \"Account no. is required\");\r\n\t\trequire(bytes(_accountHolderName).length > 0, \"Account holder name is required\");\r\n\t\trequire(bytes(_dpayId).length > 0, \"Account dpay id is required\");\r\n\t\trequire(_phoneNo != 0, \"A valid account phone no(10 digits) is required\");\r\n\t\trequire(bytes(_googleId).length > 0, \"Account google id is required\");\r\n\t\trequire(bytes(_pin).length == 4, \"Valid account pin(4 digits) is required\");\r\n\r\n\t\t// TODO Make sure dpay id is unique\r\n\r\n\t\t// Add account\r\n\t\taccountsCount++;\r\n\t\taccounts[accountsCount] = Account(msg.sender, _accountHolderName, _dpayId, _phoneNo, _googleId, keccak256(bytes(_pin)), false);\r\n\t\taccountNumbers[msg.sender] = true;\r\n\r\n\t\t// Trigger event\r\n\t\temit AccountCreated(msg.sender, _accountHolderName,_dpayId, _phoneNo, _googleId, false);\r\n\t}\r\n\r\n\tfunction editAccount(uint _accountId, string memory _accountHolderName, string memory _dpayId, uint _phoneNo, string memory _oldPin, string memory _newPin, bool _isPrimaryAccount) public onlyExistingAccount{\r\n\t\t// Make sure account id is valid\r\n\t\trequire(_accountId > 0 && _accountId <= accountsCount, \"Account is invalid\");\r\n\r\n\t\tAccount memory _account = accounts[_accountId];\r\n\r\n\t\t// TODO Make sure dpay id is unique\r\n\r\n\t\t// Make sure account pin is same as the pin entered by the user(sender)\r\n\t\trequire(_getAccountPin(msg.sender) == keccak256(bytes(_oldPin)), \"Pin is wrong!\");\r\n\r\n\t\t// Make sure the inputs exists\r\n\t\trequire(msg.sender != address(0x0), \"Account no. is required\");\r\n\t\trequire(bytes(_accountHolderName).length > 0, \"Account holder name is required\");\r\n\t\trequire(bytes(_dpayId).length > 0, \"Account dpay id is required\");\r\n\t\trequire(_phoneNo != 0, \"A valid account phone no(10 digits) is required\");\r\n\t\trequire(bytes(_oldPin).length == 4, \"Valid account pin(4 digits) is required\");\r\n\t\trequire(bytes(_newPin).length == 4, \"Valid account pin(4 digits) is required\");\r\n\t\trequire(_isPrimaryAccount == false || _isPrimaryAccount == true, \"Primary account status is required\");\r\n\r\n\t\t// Make sure account address is msg.sender only\r\n\t\trequire(_account.accountNo == msg.sender, \"Only account holder can edit the account details\");\r\n\r\n\t\t// Edit account\r\n\t\t_account.accountHolderName = _accountHolderName;\r\n\t\t_account.dpayId = _dpayId;\r\n\t\t_account.phoneNo = _phoneNo;\r\n\t\t_account.pin = keccak256(bytes(_newPin));\r\n\t\t_account.isPrimaryAccount = _isPrimaryAccount;\r\n\r\n\t\t// Store edited account\r\n\t\taccounts[_accountId] = _account;\r\n\r\n\t\t// Trigger event\r\n\t\temit AccountEdited(msg.sender, _account.accountHolderName, _account.dpayId, _account.phoneNo, _account.googleId, _account.isPrimaryAccount);\r\n\t}\r\n\r\n\tfunction sendAmount(address payable _receiver, string memory _pin) public payable onlyExistingAccount{\r\n\t\t// Make sure receiver account address exists\r\n\t\trequire(accountNumbers[_receiver], \"Receiver account number is invalid!\" );\r\n\r\n\t\t// Make sure account pin is same as the pin entered by the user(sender)\r\n\t\trequire(_getAccountPin(msg.sender) == keccak256(bytes(_pin)), \"Pin is wrong!\");\r\n\r\n\t\t// Transfer amount to receiver\r\n\t\taddress(_receiver).transfer(msg.value);\r\n\t\ttransactionsCount++;\r\n\t\ttransactions[transactionsCount] = Transaction(msg.sender, _receiver, msg.value, block.timestamp);\r\n\r\n\t\t// Trigger event\r\n\t\temit AmmountTransfered(msg.sender, _receiver, msg.value);\r\n\t}\r\n\r\n\tfunction requestAmount(address _requestTo, uint _amount) public onlyExistingAccount{\r\n\t\t// Make sure requested account address exists\r\n\t\trequire(accountNumbers[_requestTo], \"Requested account number is invalid!\" );\r\n\t\t// Make sure requested amount is valid\r\n\t\trequire(_amount > 0, \"Requested amount must be more than 0 ETH!\" );\r\n\r\n\t\t// Add request\r\n\t\trequestsCount++;\r\n\t\trequests[requestsCount] = Request(_requestTo, msg.sender, _amount, block.timestamp, false, false);\r\n\r\n\t\t// Trigger event\r\n\t\temit AmmountRequested(_requestTo, msg.sender, _amount, false, false);\r\n\t}\r\n\r\n\tfunction fulfillRequestedAmount(uint requestId, string memory _pin) public payable onlyExistingAccount{\r\n\t\t// Make sure request id is valid\r\n\t\trequire(requestId > 0 && requestId <= requestsCount, \"Invalid request id\");\r\n\r\n\t\tRequest memory _request = requests[requestId];\r\n\r\n\t\t// Make sure request is not rejected\r\n\t\trequire(!_request.isRejected, \"Request is already rejected\");\r\n\r\n\t\t// Make sure requested address is changing the data\r\n\t\trequire(_request.requestingTo == msg.sender, \"Requested account no. is not yours\");\r\n\r\n\t\t// Make transaction\r\n\t\tsendAmount(_request.requestingFrom, _pin);\r\n\r\n\t\t// Mark request as fulfilled\r\n\t\t_request.isFulfilled = true;\r\n\t\trequests[requestId] = _request;\r\n\t\t\r\n\t\t// Trigger event\r\n\t\temit FulFillAmmountRequested(_request.requestingTo, _request.requestingFrom, _request.amount, _request.isFulfilled, _request.isRejected);\r\n\t}\r\n\r\n\tfunction rejectRequestedAmount(uint requestId) public onlyExistingAccount{\r\n\t\t// Make sure request id is valid\r\n\t\trequire(requestId > 0 && requestId <= requestsCount, \"Invalid request id\");\r\n\t\t\r\n\t\tRequest memory _request = requests[requestId];\r\n\r\n\t\t// Make sure request is not fulfilled\r\n\t\trequire(!_request.isFulfilled, \"Request is already fulfilled\");\r\n\r\n\t\t// Make sure requested address is changing the data\r\n\t\trequire(_request.requestingTo == msg.sender, \"Requested account no. is not yours\");\r\n\r\n\r\n\t\t// Mark request as rejected\r\n\t\t_request.isRejected = true;\r\n\t\trequests[requestId] = _request;\r\n\t\t\r\n\t\t// Trigger event\r\n\t\temit RejectAmmountRequested(_request.requestingTo, _request.requestingFrom, _request.amount, _request.isFulfilled, _request.isRejected);\r\n\t}\r\n\r\n\t/* Helper Functions */\r\n\tfunction _getAccountUsingAccountNumber(address _accountNo) public view onlyExistingAccount returns(Account memory){\r\n\t\tfor(uint i=1; i<=accountsCount; i++){\r\n\t\t\tif(accounts[i].accountNo == _accountNo){\r\n\t\t\t\tAccount memory _account = accounts[i];\r\n\t\t\t\tdelete _account.pin;\r\n\t\t\t\treturn _account;\r\n\t\t\t}\r\n\t\t}\r\n\t}\r\n\r\n\tfunction _getAccountUsingDpayId(string memory _dpayId) public view onlyExistingAccount returns(Account memory){\r\n\t\tfor(uint i=1; i<=accountsCount; i++){\r\n\t\t\t// string memory _currentDpayId = accounts[i].dpayId;\r\n\t\t\tif(keccak256(bytes(accounts[i].dpayId)) == keccak256(bytes(_dpayId))){\r\n\t\t\t\tAccount memory _account = accounts[i];\r\n\t\t\t\tdelete _account.pin;\r\n\t\t\t\treturn _account;\r\n\t\t\t}\r\n\t\t}\r\n\t}\r\n\r\n\tfunction _getAccountUsingPhoneNumber(uint _phoneNo) public view onlyExistingAccount returns(Account memory){\r\n\t\tfor(uint i=1; i<=accountsCount; i++){\r\n\t\t\tif(accounts[i].phoneNo == _phoneNo){\r\n\t\t\t\tAccount memory _account = accounts[i];\r\n\t\t\t\tdelete _account.pin;\r\n\t\t\t\treturn _account;\r\n\t\t\t}\r\n\t\t}\r\n\t}\r\n\r\n\tfunction _getAccountPin(address _accountNo) private view onlyExistingAccount returns(bytes32){\r\n\t\tfor(uint i=1; i<=accountsCount; i++){\r\n\t\t\tif(accounts[i].accountNo == _accountNo){\r\n\t\t\t\treturn accounts[i].pin;\r\n\t\t\t}\r\n\t\t}\r\n\t}\r\n}",
  "sourcePath": "D:\\Engineering\\Dev\\Blockchain Development\\Projects\\DAppPay\\src\\contracts\\DAppPay.sol",
  "compiler": {
    "name": "solc",
    "version": "0.5.16+commit.9c3226ce.Emscripten.clang"
  },
  "schemaVersion": "3.4.3",
  "updatedAt": "2021-09-29T09:17:46.501Z",
  "devdoc": {
    "methods": {}
  },
  "userdoc": {
    "methods": {}
  }
}