{
  "contractName": "DAppPay",
  "abi": [
    {
      "inputs": [],
      "payable": false,
      "stateMutability": "nonpayable",
      "type": "constructor"
    },
    {
      "anonymous": false,
      "inputs": [
        {
          "indexed": true,
          "internalType": "uint256",
          "name": "accountId",
          "type": "uint256"
        },
        {
          "indexed": false,
          "internalType": "address payable",
          "name": "accountNo",
          "type": "address"
        },
        {
          "indexed": false,
          "internalType": "string",
          "name": "accountHolderName",
          "type": "string"
        },
        {
          "indexed": false,
          "internalType": "string",
          "name": "dpayId",
          "type": "string"
        },
        {
          "indexed": false,
          "internalType": "uint256",
          "name": "phoneNo",
          "type": "uint256"
        },
        {
          "indexed": false,
          "internalType": "string",
          "name": "googleId",
          "type": "string"
        },
        {
          "indexed": false,
          "internalType": "bool",
          "name": "isPrimaryAccount",
          "type": "bool"
        }
      ],
      "name": "AccountCreated",
      "type": "event"
    },
    {
      "anonymous": false,
      "inputs": [
        {
          "indexed": true,
          "internalType": "uint256",
          "name": "accountId",
          "type": "uint256"
        },
        {
          "indexed": false,
          "internalType": "address payable",
          "name": "accountNo",
          "type": "address"
        },
        {
          "indexed": false,
          "internalType": "string",
          "name": "accountHolderName",
          "type": "string"
        },
        {
          "indexed": false,
          "internalType": "string",
          "name": "dpayId",
          "type": "string"
        },
        {
          "indexed": false,
          "internalType": "uint256",
          "name": "phoneNo",
          "type": "uint256"
        },
        {
          "indexed": false,
          "internalType": "string",
          "name": "googleId",
          "type": "string"
        },
        {
          "indexed": false,
          "internalType": "bool",
          "name": "isPrimaryAccount",
          "type": "bool"
        }
      ],
      "name": "AccountEdited",
      "type": "event"
    },
    {
      "anonymous": false,
      "inputs": [
        {
          "indexed": false,
          "internalType": "address",
          "name": "requestingTo",
          "type": "address"
        },
        {
          "indexed": false,
          "internalType": "address payable",
          "name": "requestingFrom",
          "type": "address"
        },
        {
          "indexed": false,
          "internalType": "uint256",
          "name": "amount",
          "type": "uint256"
        },
        {
          "indexed": false,
          "internalType": "bool",
          "name": "isFulfilled",
          "type": "bool"
        },
        {
          "indexed": false,
          "internalType": "bool",
          "name": "isRejected",
          "type": "bool"
        }
      ],
      "name": "AmmountRequested",
      "type": "event"
    },
    {
      "anonymous": false,
      "inputs": [
        {
          "indexed": false,
          "internalType": "address",
          "name": "sender",
          "type": "address"
        },
        {
          "indexed": false,
          "internalType": "address payable",
          "name": "receiver",
          "type": "address"
        },
        {
          "indexed": false,
          "internalType": "uint256",
          "name": "amount",
          "type": "uint256"
        }
      ],
      "name": "AmmountTransfered",
      "type": "event"
    },
    {
      "anonymous": false,
      "inputs": [
        {
          "indexed": false,
          "internalType": "address",
          "name": "requestingTo",
          "type": "address"
        },
        {
          "indexed": false,
          "internalType": "address payable",
          "name": "requestingFrom",
          "type": "address"
        },
        {
          "indexed": false,
          "internalType": "uint256",
          "name": "amount",
          "type": "uint256"
        },
        {
          "indexed": false,
          "internalType": "bool",
          "name": "isFulfilled",
          "type": "bool"
        },
        {
          "indexed": false,
          "internalType": "bool",
          "name": "isRejected",
          "type": "bool"
        }
      ],
      "name": "FulFillAmmountRequested",
      "type": "event"
    },
    {
      "anonymous": false,
      "inputs": [
        {
          "indexed": false,
          "internalType": "address",
          "name": "requestingTo",
          "type": "address"
        },
        {
          "indexed": false,
          "internalType": "address payable",
          "name": "requestingFrom",
          "type": "address"
        },
        {
          "indexed": false,
          "internalType": "uint256",
          "name": "amount",
          "type": "uint256"
        },
        {
          "indexed": false,
          "internalType": "bool",
          "name": "isFulfilled",
          "type": "bool"
        },
        {
          "indexed": false,
          "internalType": "bool",
          "name": "isRejected",
          "type": "bool"
        }
      ],
      "name": "RejectAmmountRequested",
      "type": "event"
    },
    {
      "constant": true,
      "inputs": [
        {
          "internalType": "address",
          "name": "",
          "type": "address"
        }
      ],
      "name": "accountNumbers",
      "outputs": [
        {
          "internalType": "bool",
          "name": "",
          "type": "bool"
        }
      ],
      "payable": false,
      "stateMutability": "view",
      "type": "function"
    },
    {
      "constant": true,
      "inputs": [
        {
          "internalType": "uint256",
          "name": "",
          "type": "uint256"
        }
      ],
      "name": "accounts",
      "outputs": [
        {
          "internalType": "uint256",
          "name": "accountId",
          "type": "uint256"
        },
        {
          "internalType": "address payable",
          "name": "accountNo",
          "type": "address"
        },
        {
          "internalType": "string",
          "name": "accountHolderName",
          "type": "string"
        },
        {
          "internalType": "string",
          "name": "dpayId",
          "type": "string"
        },
        {
          "internalType": "uint256",
          "name": "phoneNo",
          "type": "uint256"
        },
        {
          "internalType": "string",
          "name": "googleId",
          "type": "string"
        },
        {
          "internalType": "bytes32",
          "name": "pin",
          "type": "bytes32"
        },
        {
          "internalType": "bool",
          "name": "isPrimaryAccount",
          "type": "bool"
        }
      ],
      "payable": false,
      "stateMutability": "view",
      "type": "function"
    },
    {
      "constant": true,
      "inputs": [],
      "name": "accountsCount",
      "outputs": [
        {
          "internalType": "uint256",
          "name": "",
          "type": "uint256"
        }
      ],
      "payable": false,
      "stateMutability": "view",
      "type": "function"
    },
    {
      "constant": true,
      "inputs": [],
      "name": "name",
      "outputs": [
        {
          "internalType": "string",
          "name": "",
          "type": "string"
        }
      ],
      "payable": false,
      "stateMutability": "view",
      "type": "function"
    },
    {
      "constant": true,
      "inputs": [
        {
          "internalType": "uint256",
          "name": "",
          "type": "uint256"
        }
      ],
      "name": "requests",
      "outputs": [
        {
          "internalType": "address",
          "name": "requestingTo",
          "type": "address"
        },
        {
          "internalType": "address payable",
          "name": "requestingFrom",
          "type": "address"
        },
        {
          "internalType": "uint256",
          "name": "amount",
          "type": "uint256"
        },
        {
          "internalType": "uint256",
          "name": "time",
          "type": "uint256"
        },
        {
          "internalType": "bool",
          "name": "isFulfilled",
          "type": "bool"
        },
        {
          "internalType": "bool",
          "name": "isRejected",
          "type": "bool"
        }
      ],
      "payable": false,
      "stateMutability": "view",
      "type": "function"
    },
    {
      "constant": true,
      "inputs": [],
      "name": "requestsCount",
      "outputs": [
        {
          "internalType": "uint256",
          "name": "",
          "type": "uint256"
        }
      ],
      "payable": false,
      "stateMutability": "view",
      "type": "function"
    },
    {
      "constant": true,
      "inputs": [
        {
          "internalType": "uint256",
          "name": "",
          "type": "uint256"
        }
      ],
      "name": "transactions",
      "outputs": [
        {
          "internalType": "address",
          "name": "sender",
          "type": "address"
        },
        {
          "internalType": "address payable",
          "name": "receiver",
          "type": "address"
        },
        {
          "internalType": "uint256",
          "name": "amount",
          "type": "uint256"
        },
        {
          "internalType": "uint256",
          "name": "time",
          "type": "uint256"
        }
      ],
      "payable": false,
      "stateMutability": "view",
      "type": "function"
    },
    {
      "constant": true,
      "inputs": [],
      "name": "transactionsCount",
      "outputs": [
        {
          "internalType": "uint256",
          "name": "",
          "type": "uint256"
        }
      ],
      "payable": false,
      "stateMutability": "view",
      "type": "function"
    },
    {
      "constant": false,
      "inputs": [
        {
          "internalType": "string",
          "name": "_accountHolderName",
          "type": "string"
        },
        {
          "internalType": "string",
          "name": "_dpayId",
          "type": "string"
        },
        {
          "internalType": "uint256",
          "name": "_phoneNo",
          "type": "uint256"
        },
        {
          "internalType": "string",
          "name": "_googleId",
          "type": "string"
        },
        {
          "internalType": "string",
          "name": "_pin",
          "type": "string"
        }
      ],
      "name": "createAccount",
      "outputs": [],
      "payable": false,
      "stateMutability": "nonpayable",
      "type": "function"
    },
    {
      "constant": false,
      "inputs": [
        {
          "internalType": "string",
          "name": "_accountHolderName",
          "type": "string"
        },
        {
          "internalType": "string",
          "name": "_dpayId",
          "type": "string"
        },
        {
          "internalType": "uint256",
          "name": "_phoneNo",
          "type": "uint256"
        },
        {
          "internalType": "string",
          "name": "_oldPin",
          "type": "string"
        },
        {
          "internalType": "string",
          "name": "_newPin",
          "type": "string"
        },
        {
          "internalType": "bool",
          "name": "_isPrimaryAccount",
          "type": "bool"
        }
      ],
      "name": "editAccount",
      "outputs": [],
      "payable": false,
      "stateMutability": "nonpayable",
      "type": "function"
    },
    {
      "constant": false,
      "inputs": [
        {
          "internalType": "address payable",
          "name": "_receiver",
          "type": "address"
        },
        {
          "internalType": "string",
          "name": "_pin",
          "type": "string"
        }
      ],
      "name": "sendAmount",
      "outputs": [],
      "payable": true,
      "stateMutability": "payable",
      "type": "function"
    },
    {
      "constant": false,
      "inputs": [
        {
          "internalType": "address",
          "name": "_requestTo",
          "type": "address"
        },
        {
          "internalType": "uint256",
          "name": "_amount",
          "type": "uint256"
        }
      ],
      "name": "requestAmount",
      "outputs": [],
      "payable": false,
      "stateMutability": "nonpayable",
      "type": "function"
    },
    {
      "constant": false,
      "inputs": [
        {
          "internalType": "uint256",
          "name": "requestId",
          "type": "uint256"
        },
        {
          "internalType": "string",
          "name": "_pin",
          "type": "string"
        }
      ],
      "name": "fulfillRequestedAmount",
      "outputs": [],
      "payable": true,
      "stateMutability": "payable",
      "type": "function"
    },
    {
      "constant": false,
      "inputs": [
        {
          "internalType": "uint256",
          "name": "requestId",
          "type": "uint256"
        }
      ],
      "name": "rejectRequestedAmount",
      "outputs": [],
      "payable": false,
      "stateMutability": "nonpayable",
      "type": "function"
    },
    {
      "constant": true,
      "inputs": [
        {
          "internalType": "address",
          "name": "_accountNo",
          "type": "address"
        }
      ],
      "name": "_getAccountUsingAccountNumber",
      "outputs": [
        {
          "components": [
            {
              "internalType": "uint256",
              "name": "accountId",
              "type": "uint256"
            },
            {
              "internalType": "address payable",
              "name": "accountNo",
              "type": "address"
            },
            {
              "internalType": "string",
              "name": "accountHolderName",
              "type": "string"
            },
            {
              "internalType": "string",
              "name": "dpayId",
              "type": "string"
            },
            {
              "internalType": "uint256",
              "name": "phoneNo",
              "type": "uint256"
            },
            {
              "internalType": "string",
              "name": "googleId",
              "type": "string"
            },
            {
              "internalType": "bytes32",
              "name": "pin",
              "type": "bytes32"
            },
            {
              "internalType": "bool",
              "name": "isPrimaryAccount",
              "type": "bool"
            }
          ],
          "internalType": "struct DAppPay.Account",
          "name": "",
          "type": "tuple"
        }
      ],
      "payable": false,
      "stateMutability": "view",
      "type": "function"
    },
    {
      "constant": true,
      "inputs": [
        {
          "internalType": "string",
          "name": "_dpayId",
          "type": "string"
        }
      ],
      "name": "_getAccountUsingDpayId",
      "outputs": [
        {
          "components": [
            {
              "internalType": "uint256",
              "name": "accountId",
              "type": "uint256"
            },
            {
              "internalType": "address payable",
              "name": "accountNo",
              "type": "address"
            },
            {
              "internalType": "string",
              "name": "accountHolderName",
              "type": "string"
            },
            {
              "internalType": "string",
              "name": "dpayId",
              "type": "string"
            },
            {
              "internalType": "uint256",
              "name": "phoneNo",
              "type": "uint256"
            },
            {
              "internalType": "string",
              "name": "googleId",
              "type": "string"
            },
            {
              "internalType": "bytes32",
              "name": "pin",
              "type": "bytes32"
            },
            {
              "internalType": "bool",
              "name": "isPrimaryAccount",
              "type": "bool"
            }
          ],
          "internalType": "struct DAppPay.Account",
          "name": "",
          "type": "tuple"
        }
      ],
      "payable": false,
      "stateMutability": "view",
      "type": "function"
    },
    {
      "constant": true,
      "inputs": [
        {
          "internalType": "uint256",
          "name": "_phoneNo",
          "type": "uint256"
        }
      ],
      "name": "_getAccountUsingPhoneNumber",
      "outputs": [
        {
          "components": [
            {
              "internalType": "uint256",
              "name": "accountId",
              "type": "uint256"
            },
            {
              "internalType": "address payable",
              "name": "accountNo",
              "type": "address"
            },
            {
              "internalType": "string",
              "name": "accountHolderName",
              "type": "string"
            },
            {
              "internalType": "string",
              "name": "dpayId",
              "type": "string"
            },
            {
              "internalType": "uint256",
              "name": "phoneNo",
              "type": "uint256"
            },
            {
              "internalType": "string",
              "name": "googleId",
              "type": "string"
            },
            {
              "internalType": "bytes32",
              "name": "pin",
              "type": "bytes32"
            },
            {
              "internalType": "bool",
              "name": "isPrimaryAccount",
              "type": "bool"
            }
          ],
          "internalType": "struct DAppPay.Account",
          "name": "",
          "type": "tuple"
        }
      ],
      "payable": false,
      "stateMutability": "view",
      "type": "function"
    }
  ],
  "bytecode": "0x60806040523480156200001157600080fd5b506040518060400160405280600781526020017f4441707050617900000000000000000000000000000000000000000000000000815250600090805190602001906200005f9291906200006e565b5060006002819055506200011d565b828054600181600116156101000203166002900490600052602060002090601f016020900481019282601f10620000b157805160ff1916838001178555620000e2565b82800160010185558215620000e2579182015b82811115620000e1578251825591602001919060010190620000c4565b5b509050620000f19190620000f5565b5090565b6200011a91905b8082111562000116576000816000905550600101620000fc565b5090565b90565b6146c9806200012d6000396000f3fe6080604052600436106100fe5760003560e01c80639ace38c211610095578063e9cfff7f11610064578063e9cfff7f14610345578063f2a40db814610382578063f2a45f62146103c6578063fbfa4b7f146103ef578063fd99a7461461041a576100fe565b80639ace38c21461028a5780639cf08314146102ca578063cedfe204146102f3578063e37a74ff1461031c576100fe565b806327538b30116100d157806327538b30146101c457806381d12c58146101ef5780638cca8a501461023157806394708bec1461024d576100fe565b806306fdde03146101035780630894777d1461012e57806311a421051461016b5780631f75a63514610187575b600080fd5b34801561010f57600080fd5b50610118610445565b60405161012591906140fa565b60405180910390f35b34801561013a57600080fd5b506101556004803603610150919081019061322c565b6104e3565b60405161016291906140df565b60405180910390f35b61018560048036036101809190810190613255565b610503565b005b34801561019357600080fd5b506101ae60048036036101a9919081019061322c565b61084f565b6040516101bb91906143bc565b60405180910390f35b3480156101d057600080fd5b506101d9610b99565b6040516101e691906143de565b60405180910390f35b3480156101fb57600080fd5b50610216600480360361021191908101906134e6565b610b9f565b6040516102289695949392919061407e565b60405180910390f35b61024b6004803603610246919081019061350f565b610c35565b005b34801561025957600080fd5b50610274600480360361026f91908101906132e5565b611057565b60405161028191906143bc565b60405180910390f35b34801561029657600080fd5b506102b160048036036102ac91908101906134e6565b611370565b6040516102c19493929190614039565b60405180910390f35b3480156102d657600080fd5b506102f160048036036102ec9190810190613326565b6113e0565b005b3480156102ff57600080fd5b5061031a600480360361031591908101906134e6565b611892565b005b34801561032857600080fd5b50610343600480360361033e91908101906132a9565b611ca5565b005b34801561035157600080fd5b5061036c600480360361036791908101906134e6565b611faf565b60405161037991906143bc565b60405180910390f35b34801561038e57600080fd5b506103a960048036036103a491908101906134e6565b6125ca565b6040516103bd9897969594939291906143f9565b60405180910390f35b3480156103d257600080fd5b506103ed60048036036103e891908101906133fd565b612807565b005b3480156103fb57600080fd5b50610404612ed2565b60405161041191906143de565b60405180910390f35b34801561042657600080fd5b5061042f612ed8565b60405161043c91906143de565b60405180910390f35b60008054600181600116156101000203166002900480601f0160208091040260200160405190810160405280929190818152602001828054600181600116156101000203166002900480156104db5780601f106104b0576101008083540402835291602001916104db565b820191906000526020600020905b8154815290600101906020018083116104be57829003601f168201915b505050505081565b60016020528060005260406000206000915054906101000a900460ff1681565b600160003373ffffffffffffffffffffffffffffffffffffffff1673ffffffffffffffffffffffffffffffffffffffff16815260200190815260200160002060009054906101000a900460ff1661058f576040517f08c379a00000000000000000000000000000000000000000000000000000000081526004016105869061419c565b60405180910390fd5b600160008373ffffffffffffffffffffffffffffffffffffffff1673ffffffffffffffffffffffffffffffffffffffff16815260200190815260200160002060009054906101000a900460ff1661061b576040517f08c379a0000000000000000000000000000000000000000000000000000000008152600401610612906141fc565b60405180910390fd5b600034141561065f576040517f08c379a00000000000000000000000000000000000000000000000000000000081526004016106569061433c565b60405180910390fd5b808051906020012061067033612ede565b146106b0576040517f08c379a00000000000000000000000000000000000000000000000000000000081526004016106a79061417c565b60405180910390fd5b8173ffffffffffffffffffffffffffffffffffffffff166108fc349081150290604051600060405180830381858888f193505050501580156106f6573d6000803e3d6000fd5b5060066000815480929190600101919050555060405180608001604052803373ffffffffffffffffffffffffffffffffffffffff1681526020018373ffffffffffffffffffffffffffffffffffffffff1681526020013481526020014281525060076000600654815260200190815260200160002060008201518160000160006101000a81548173ffffffffffffffffffffffffffffffffffffffff021916908373ffffffffffffffffffffffffffffffffffffffff16021790555060208201518160010160006101000a81548173ffffffffffffffffffffffffffffffffffffffff021916908373ffffffffffffffffffffffffffffffffffffffff16021790555060408201518160020155606082015181600301559050507fb688dba62d2365cd04ed933cad5a6de86bedb1459b36d1bbe954a49b254c1edc33833460405161084393929190613ec3565b60405180910390a15050565b610857613019565b6000600190505b6002548111610b92578273ffffffffffffffffffffffffffffffffffffffff166003600083815260200190815260200160002060010160009054906101000a900473ffffffffffffffffffffffffffffffffffffffff1673ffffffffffffffffffffffffffffffffffffffff161415610b85576108d9613019565b6003600083815260200190815260200160002060405180610100016040529081600082015481526020016001820160009054906101000a900473ffffffffffffffffffffffffffffffffffffffff1673ffffffffffffffffffffffffffffffffffffffff1673ffffffffffffffffffffffffffffffffffffffff168152602001600282018054600181600116156101000203166002900480601f0160208091040260200160405190810160405280929190818152602001828054600181600116156101000203166002900480156109f15780601f106109c6576101008083540402835291602001916109f1565b820191906000526020600020905b8154815290600101906020018083116109d457829003601f168201915b50505050508152602001600382018054600181600116156101000203166002900480601f016020809104026020016040519081016040528092919081815260200182805460018160011615610100020316600290048015610a935780601f10610a6857610100808354040283529160200191610a93565b820191906000526020600020905b815481529060010190602001808311610a7657829003601f168201915b5050505050815260200160048201548152602001600582018054600181600116156101000203166002900480601f016020809104026020016040519081016040528092919081815260200182805460018160011615610100020316600290048015610b3f5780601f10610b1457610100808354040283529160200191610b3f565b820191906000526020600020905b815481529060010190602001808311610b2257829003601f168201915b50505050508152602001600682015481526020016007820160009054906101000a900460ff16151515158152505090508060c00160008019168152508092505050610b94565b808060010191505061085e565b505b919050565b60025481565b60056020528060005260406000206000915090508060000160009054906101000a900473ffffffffffffffffffffffffffffffffffffffff16908060010160009054906101000a900473ffffffffffffffffffffffffffffffffffffffff16908060020154908060030154908060040160009054906101000a900460ff16908060040160019054906101000a900460ff16905086565b600160003373ffffffffffffffffffffffffffffffffffffffff1673ffffffffffffffffffffffffffffffffffffffff16815260200190815260200160002060009054906101000a900460ff16610cc1576040517f08c379a0000000000000000000000000000000000000000000000000000000008152600401610cb89061419c565b60405180910390fd5b600082118015610cd357506004548211155b610d12576040517f08c379a0000000000000000000000000000000000000000000000000000000008152600401610d099061411c565b60405180910390fd5b610d1a613079565b600560008481526020019081526020016000206040518060c00160405290816000820160009054906101000a900473ffffffffffffffffffffffffffffffffffffffff1673ffffffffffffffffffffffffffffffffffffffff1673ffffffffffffffffffffffffffffffffffffffff1681526020016001820160009054906101000a900473ffffffffffffffffffffffffffffffffffffffff1673ffffffffffffffffffffffffffffffffffffffff1673ffffffffffffffffffffffffffffffffffffffff16815260200160028201548152602001600382015481526020016004820160009054906101000a900460ff161515151581526020016004820160019054906101000a900460ff16151515158152505090508060a0015115610e75576040517f08c379a0000000000000000000000000000000000000000000000000000000008152600401610e6c9061413c565b60405180910390fd5b3373ffffffffffffffffffffffffffffffffffffffff16816000015173ffffffffffffffffffffffffffffffffffffffff1614610ee7576040517f08c379a0000000000000000000000000000000000000000000000000000000008152600401610ede9061435c565b60405180910390fd5b610ef5816020015183610503565b6001816080019015159081151581525050806005600085815260200190815260200160002060008201518160000160006101000a81548173ffffffffffffffffffffffffffffffffffffffff021916908373ffffffffffffffffffffffffffffffffffffffff16021790555060208201518160010160006101000a81548173ffffffffffffffffffffffffffffffffffffffff021916908373ffffffffffffffffffffffffffffffffffffffff160217905550604082015181600201556060820151816003015560808201518160040160006101000a81548160ff02191690831515021790555060a08201518160040160016101000a81548160ff0219169083151502179055509050507f6d291ea45d14e9c320ab764e4119271af1d7ccaa2dc42addb356a52276f8967b81600001518260200151836040015184608001518560a0015160405161104a959493929190613fe6565b60405180910390a1505050565b61105f613019565b6000600190505b60025481116113695782805190602001206003600083815260200190815260200160002060030160405161109a9190613eac565b6040518091039020141561135c576110b0613019565b6003600083815260200190815260200160002060405180610100016040529081600082015481526020016001820160009054906101000a900473ffffffffffffffffffffffffffffffffffffffff1673ffffffffffffffffffffffffffffffffffffffff1673ffffffffffffffffffffffffffffffffffffffff168152602001600282018054600181600116156101000203166002900480601f0160208091040260200160405190810160405280929190818152602001828054600181600116156101000203166002900480156111c85780601f1061119d576101008083540402835291602001916111c8565b820191906000526020600020905b8154815290600101906020018083116111ab57829003601f168201915b50505050508152602001600382018054600181600116156101000203166002900480601f01602080910402602001604051908101604052809291908181526020018280546001816001161561010002031660029004801561126a5780601f1061123f5761010080835404028352916020019161126a565b820191906000526020600020905b81548152906001019060200180831161124d57829003601f168201915b5050505050815260200160048201548152602001600582018054600181600116156101000203166002900480601f0160208091040260200160405190810160405280929190818152602001828054600181600116156101000203166002900480156113165780601f106112eb57610100808354040283529160200191611316565b820191906000526020600020905b8154815290600101906020018083116112f957829003601f168201915b50505050508152602001600682015481526020016007820160009054906101000a900460ff16151515158152505090508060c0016000801916815250809250505061136b565b8080600101915050611066565b505b919050565b60076020528060005260406000206000915090508060000160009054906101000a900473ffffffffffffffffffffffffffffffffffffffff16908060010160009054906101000a900473ffffffffffffffffffffffffffffffffffffffff16908060020154908060030154905084565b600160003373ffffffffffffffffffffffffffffffffffffffff1673ffffffffffffffffffffffffffffffffffffffff16815260200190815260200160002060009054906101000a900460ff161561146d576040517f08c379a0000000000000000000000000000000000000000000000000000000008152600401611464906142dc565b60405180910390fd5b600073ffffffffffffffffffffffffffffffffffffffff163373ffffffffffffffffffffffffffffffffffffffff1614156114dd576040517f08c379a00000000000000000000000000000000000000000000000000000000081526004016114d49061437c565b60405180910390fd5b6000855111611521576040517f08c379a00000000000000000000000000000000000000000000000000000000081526004016115189061415c565b60405180910390fd5b6000845111611565576040517f08c379a000000000000000000000000000000000000000000000000000000000815260040161155c9061425c565b60405180910390fd5b60008314156115a9576040517f08c379a00000000000000000000000000000000000000000000000000000000081526004016115a09061423c565b60405180910390fd5b60008251116115ed576040517f08c379a00000000000000000000000000000000000000000000000000000000081526004016115e49061429c565b60405180910390fd5b6004815114611631576040517f08c379a00000000000000000000000000000000000000000000000000000000081526004016116289061421c565b60405180910390fd5b611639613019565b61164285611057565b905060008160600151511461168c576040517f08c379a0000000000000000000000000000000000000000000000000000000008152600401611683906141bc565b60405180910390fd5b60026000815480929190600101919050555060405180610100016040528060025481526020013373ffffffffffffffffffffffffffffffffffffffff16815260200187815260200186815260200185815260200184815260200183805190602001208152602001600015158152506003600060025481526020019081526020016000206000820151816000015560208201518160010160006101000a81548173ffffffffffffffffffffffffffffffffffffffff021916908373ffffffffffffffffffffffffffffffffffffffff160217905550604082015181600201908051906020019061177c9291906130df565b5060608201518160030190805190602001906117999291906130df565b506080820151816004015560a08201518160050190805190602001906117c09291906130df565b5060c0820151816006015560e08201518160070160006101000a81548160ff02191690831515021790555090505060018060003373ffffffffffffffffffffffffffffffffffffffff1673ffffffffffffffffffffffffffffffffffffffff16815260200190815260200160002060006101000a81548160ff0219169083151502179055506002547f0cf2c3ab17072553624061a8d827174869595e538e24323cb1218efe5ac0306f3388888888600060405161188296959493929190613efa565b60405180910390a2505050505050565b600160003373ffffffffffffffffffffffffffffffffffffffff1673ffffffffffffffffffffffffffffffffffffffff16815260200190815260200160002060009054906101000a900460ff1661191e576040517f08c379a00000000000000000000000000000000000000000000000000000000081526004016119159061419c565b60405180910390fd5b60008111801561193057506004548111155b61196f576040517f08c379a00000000000000000000000000000000000000000000000000000000081526004016119669061411c565b60405180910390fd5b611977613079565b600560008381526020019081526020016000206040518060c00160405290816000820160009054906101000a900473ffffffffffffffffffffffffffffffffffffffff1673ffffffffffffffffffffffffffffffffffffffff1673ffffffffffffffffffffffffffffffffffffffff1681526020016001820160009054906101000a900473ffffffffffffffffffffffffffffffffffffffff1673ffffffffffffffffffffffffffffffffffffffff1673ffffffffffffffffffffffffffffffffffffffff16815260200160028201548152602001600382015481526020016004820160009054906101000a900460ff161515151581526020016004820160019054906101000a900460ff1615151515815250509050806080015115611ad2576040517f08c379a0000000000000000000000000000000000000000000000000000000008152600401611ac99061427c565b60405180910390fd5b3373ffffffffffffffffffffffffffffffffffffffff16816000015173ffffffffffffffffffffffffffffffffffffffff1614611b44576040517f08c379a0000000000000000000000000000000000000000000000000000000008152600401611b3b9061435c565b60405180910390fd5b60018160a0019015159081151581525050806005600084815260200190815260200160002060008201518160000160006101000a81548173ffffffffffffffffffffffffffffffffffffffff021916908373ffffffffffffffffffffffffffffffffffffffff16021790555060208201518160010160006101000a81548173ffffffffffffffffffffffffffffffffffffffff021916908373ffffffffffffffffffffffffffffffffffffffff160217905550604082015181600201556060820151816003015560808201518160040160006101000a81548160ff02191690831515021790555060a08201518160040160016101000a81548160ff0219169083151502179055509050507f9f606a536304aa1cd828e173187ec5dc1cf719221b26f2f0da4d6b1b7441049d81600001518260200151836040015184608001518560a00151604051611c99959493929190613fe6565b60405180910390a15050565b600160003373ffffffffffffffffffffffffffffffffffffffff1673ffffffffffffffffffffffffffffffffffffffff16815260200190815260200160002060009054906101000a900460ff16611d31576040517f08c379a0000000000000000000000000000000000000000000000000000000008152600401611d289061419c565b60405180910390fd5b600160008373ffffffffffffffffffffffffffffffffffffffff1673ffffffffffffffffffffffffffffffffffffffff16815260200190815260200160002060009054906101000a900460ff16611dbd576040517f08c379a0000000000000000000000000000000000000000000000000000000008152600401611db49061431c565b60405180910390fd5b60008111611e00576040517f08c379a0000000000000000000000000000000000000000000000000000000008152600401611df79061439c565b60405180910390fd5b6004600081548092919060010191905055506040518060c001604052808373ffffffffffffffffffffffffffffffffffffffff1681526020013373ffffffffffffffffffffffffffffffffffffffff1681526020018281526020014281526020016000151581526020016000151581525060056000600454815260200190815260200160002060008201518160000160006101000a81548173ffffffffffffffffffffffffffffffffffffffff021916908373ffffffffffffffffffffffffffffffffffffffff16021790555060208201518160010160006101000a81548173ffffffffffffffffffffffffffffffffffffffff021916908373ffffffffffffffffffffffffffffffffffffffff160217905550604082015181600201556060820151816003015560808201518160040160006101000a81548160ff02191690831515021790555060a08201518160040160016101000a81548160ff0219169083151502179055509050507fe366e74e45e6b3fc5fbdf9120f43b2ec59a42e6c2999ed9108ba6873bd637c1b823383600080604051611fa3959493929190613fe6565b60405180910390a15050565b611fb7613019565b611fbf613019565b600080600190505b60025481116122a2578460036000838152602001908152602001600020600401541415612295576003600082815260200190815260200160002060405180610100016040529081600082015481526020016001820160009054906101000a900473ffffffffffffffffffffffffffffffffffffffff1673ffffffffffffffffffffffffffffffffffffffff1673ffffffffffffffffffffffffffffffffffffffff168152602001600282018054600181600116156101000203166002900480601f0160208091040260200160405190810160405280929190818152602001828054600181600116156101000203166002900480156121065780601f106120db57610100808354040283529160200191612106565b820191906000526020600020905b8154815290600101906020018083116120e957829003601f168201915b50505050508152602001600382018054600181600116156101000203166002900480601f0160208091040260200160405190810160405280929190818152602001828054600181600116156101000203166002900480156121a85780601f1061217d576101008083540402835291602001916121a8565b820191906000526020600020905b81548152906001019060200180831161218b57829003601f168201915b5050505050815260200160048201548152602001600582018054600181600116156101000203166002900480601f0160208091040260200160405190810160405280929190818152602001828054600181600116156101000203166002900480156122545780601f1061222957610100808354040283529160200191612254565b820191906000526020600020905b81548152906001019060200180831161223757829003601f168201915b50505050508152602001600682015481526020016007820160009054906101000a900460ff16151515158152505092508260c0016000801916815250600191505b8080600101915050611fc7565b5080156125bf576000600190505b60025481116125bd578460036000838152602001908152602001600020600401541480156122fe57506003600082815260200190815260200160002060070160009054906101000a900460ff165b156125b0576003600082815260200190815260200160002060405180610100016040529081600082015481526020016001820160009054906101000a900473ffffffffffffffffffffffffffffffffffffffff1673ffffffffffffffffffffffffffffffffffffffff1673ffffffffffffffffffffffffffffffffffffffff168152602001600282018054600181600116156101000203166002900480601f01602080910402602001604051908101604052809291908181526020018280546001816001161561010002031660029004801561241b5780601f106123f05761010080835404028352916020019161241b565b820191906000526020600020905b8154815290600101906020018083116123fe57829003601f168201915b50505050508152602001600382018054600181600116156101000203166002900480601f0160208091040260200160405190810160405280929190818152602001828054600181600116156101000203166002900480156124bd5780601f10612492576101008083540402835291602001916124bd565b820191906000526020600020905b8154815290600101906020018083116124a057829003601f168201915b5050505050815260200160048201548152602001600582018054600181600116156101000203166002900480601f0160208091040260200160405190810160405280929190818152602001828054600181600116156101000203166002900480156125695780601f1061253e57610100808354040283529160200191612569565b820191906000526020600020905b81548152906001019060200180831161254c57829003601f168201915b50505050508152602001600682015481526020016007820160009054906101000a900460ff16151515158152505092508260c00160008019168152508293505050506125c5565b80806001019150506122b0565b505b81925050505b919050565b60036020528060005260406000206000915090508060000154908060010160009054906101000a900473ffffffffffffffffffffffffffffffffffffffff1690806002018054600181600116156101000203166002900480601f0160208091040260200160405190810160405280929190818152602001828054600181600116156101000203166002900480156126a25780601f10612677576101008083540402835291602001916126a2565b820191906000526020600020905b81548152906001019060200180831161268557829003601f168201915b505050505090806003018054600181600116156101000203166002900480601f0160208091040260200160405190810160405280929190818152602001828054600181600116156101000203166002900480156127405780601f1061271557610100808354040283529160200191612740565b820191906000526020600020905b81548152906001019060200180831161272357829003601f168201915b505050505090806004015490806005018054600181600116156101000203166002900480601f0160208091040260200160405190810160405280929190818152602001828054600181600116156101000203166002900480156127e45780601f106127b9576101008083540402835291602001916127e4565b820191906000526020600020905b8154815290600101906020018083116127c757829003601f168201915b5050505050908060060154908060070160009054906101000a900460ff16905088565b600160003373ffffffffffffffffffffffffffffffffffffffff1673ffffffffffffffffffffffffffffffffffffffff16815260200190815260200160002060009054906101000a900460ff16612893576040517f08c379a000000000000000000000000000000000000000000000000000000000815260040161288a9061419c565b60405180910390fd5b61289b613019565b6128a486611057565b9050600081606001515114612926573373ffffffffffffffffffffffffffffffffffffffff16816020015173ffffffffffffffffffffffffffffffffffffffff1614612925576040517f08c379a000000000000000000000000000000000000000000000000000000000815260040161291c906141bc565b60405180910390fd5b5b61292f3361084f565b9050838051906020012061294233612ede565b14612982576040517f08c379a00000000000000000000000000000000000000000000000000000000081526004016129799061417c565b60405180910390fd5b600073ffffffffffffffffffffffffffffffffffffffff163373ffffffffffffffffffffffffffffffffffffffff1614156129f2576040517f08c379a00000000000000000000000000000000000000000000000000000000081526004016129e99061437c565b60405180910390fd5b6000875111612a36576040517f08c379a0000000000000000000000000000000000000000000000000000000008152600401612a2d9061415c565b60405180910390fd5b6000865111612a7a576040517f08c379a0000000000000000000000000000000000000000000000000000000008152600401612a719061425c565b60405180910390fd5b6000851415612abe576040517f08c379a0000000000000000000000000000000000000000000000000000000008152600401612ab5906141dc565b60405180910390fd5b6004845114612b02576040517f08c379a0000000000000000000000000000000000000000000000000000000008152600401612af99061421c565b60405180910390fd5b6004835114612b46576040517f08c379a0000000000000000000000000000000000000000000000000000000008152600401612b3d9061421c565b60405180910390fd5b600015158215151480612b5d575060011515821515145b612b9c576040517f08c379a0000000000000000000000000000000000000000000000000000000008152600401612b93906142bc565b60405180910390fd5b3373ffffffffffffffffffffffffffffffffffffffff16816020015173ffffffffffffffffffffffffffffffffffffffff1614612c0e576040517f08c379a0000000000000000000000000000000000000000000000000000000008152600401612c05906142fc565b60405180910390fd5b8681604001819052508581606001819052508481608001818152505082805190602001208160c0018181525050818160e0019015159081151581525050600115158215151415612d78576000600190505b6002548111612d76578160a001518051906020012060036000838152602001908152602001600020600501604051612c979190613eac565b60405180910390201415612d69573373ffffffffffffffffffffffffffffffffffffffff166003600083815260200190815260200160002060010160009054906101000a900473ffffffffffffffffffffffffffffffffffffffff1673ffffffffffffffffffffffffffffffffffffffff1614612d68576003600082815260200190815260200160002060070160009054906101000a900460ff1615612d675760006003600083815260200190815260200160002060070160006101000a81548160ff0219169083151502179055505b5b5b8080600101915050612c5f565b505b8060036000836000015181526020019081526020016000206000820151816000015560208201518160010160006101000a81548173ffffffffffffffffffffffffffffffffffffffff021916908373ffffffffffffffffffffffffffffffffffffffff1602179055506040820151816002019080519060200190612dfd9291906130df565b506060820151816003019080519060200190612e1a9291906130df565b506080820151816004015560a0820151816005019080519060200190612e419291906130df565b5060c0820151816006015560e08201518160070160006101000a81548160ff02191690831515021790555090505080600001517f58ebf74e904849dbafbef7d2896d43f9be8578e5107c977f0d7a4409de637e47338360400151846060015185608001518660a001518760e00151604051612ec196959493929190613f70565b60405180910390a250505050505050565b60045481565b60065481565b6000600160003373ffffffffffffffffffffffffffffffffffffffff1673ffffffffffffffffffffffffffffffffffffffff16815260200190815260200160002060009054906101000a900460ff16612f6c576040517f08c379a0000000000000000000000000000000000000000000000000000000008152600401612f639061419c565b60405180910390fd5b6000600190505b6002548111613012578273ffffffffffffffffffffffffffffffffffffffff166003600083815260200190815260200160002060010160009054906101000a900473ffffffffffffffffffffffffffffffffffffffff1673ffffffffffffffffffffffffffffffffffffffff161415613005576003600082815260200190815260200160002060060154915050613014565b8080600101915050612f73565b505b919050565b60405180610100016040528060008152602001600073ffffffffffffffffffffffffffffffffffffffff16815260200160608152602001606081526020016000815260200160608152602001600080191681526020016000151581525090565b6040518060c00160405280600073ffffffffffffffffffffffffffffffffffffffff168152602001600073ffffffffffffffffffffffffffffffffffffffff16815260200160008152602001600081526020016000151581526020016000151581525090565b828054600181600116156101000203166002900490600052602060002090601f016020900481019282601f1061312057805160ff191683800117855561314e565b8280016001018555821561314e579182015b8281111561314d578251825591602001919060010190613132565b5b50905061315b919061315f565b5090565b61318191905b8082111561317d576000816000905550600101613165565b5090565b90565b6000813590506131938161462a565b92915050565b6000813590506131a881614641565b92915050565b6000813590506131bd81614658565b92915050565b600082601f8301126131d457600080fd5b81356131e76131e2826144b9565b61448c565b9150808252602083016020830185838301111561320357600080fd5b61320e8382846145d7565b50505092915050565b6000813590506132268161466f565b92915050565b60006020828403121561323e57600080fd5b600061324c84828501613184565b91505092915050565b6000806040838503121561326857600080fd5b600061327685828601613199565b925050602083013567ffffffffffffffff81111561329357600080fd5b61329f858286016131c3565b9150509250929050565b600080604083850312156132bc57600080fd5b60006132ca85828601613184565b92505060206132db85828601613217565b9150509250929050565b6000602082840312156132f757600080fd5b600082013567ffffffffffffffff81111561331157600080fd5b61331d848285016131c3565b91505092915050565b600080600080600060a0868803121561333e57600080fd5b600086013567ffffffffffffffff81111561335857600080fd5b613364888289016131c3565b955050602086013567ffffffffffffffff81111561338157600080fd5b61338d888289016131c3565b945050604061339e88828901613217565b935050606086013567ffffffffffffffff8111156133bb57600080fd5b6133c7888289016131c3565b925050608086013567ffffffffffffffff8111156133e457600080fd5b6133f0888289016131c3565b9150509295509295909350565b60008060008060008060c0878903121561341657600080fd5b600087013567ffffffffffffffff81111561343057600080fd5b61343c89828a016131c3565b965050602087013567ffffffffffffffff81111561345957600080fd5b61346589828a016131c3565b955050604061347689828a01613217565b945050606087013567ffffffffffffffff81111561349357600080fd5b61349f89828a016131c3565b935050608087013567ffffffffffffffff8111156134bc57600080fd5b6134c889828a016131c3565b92505060a06134d989828a016131ae565b9150509295509295509295565b6000602082840312156134f857600080fd5b600061350684828501613217565b91505092915050565b6000806040838503121561352257600080fd5b600061353085828601613217565b925050602083013567ffffffffffffffff81111561354d57600080fd5b613559858286016131c3565b9150509250929050565b61356c816145a1565b82525050565b61357b8161454f565b82525050565b61358a8161454f565b82525050565b6135998161453d565b82525050565b6135a881614561565b82525050565b6135b781614561565b82525050565b6135c68161456d565b82525050565b6135d58161456d565b82525050565b6000815460018116600081146135f8576001811461361d57613661565b607f60028304166136098187614510565b955060ff1983168652808601935050613661565b6002820461362b8187614510565b9550613636856144e5565b60005b8281101561365857815481890152600182019150602081019050613639565b82880195505050505b505092915050565b600061367482614505565b61367e818561452c565b935061368e8185602086016145e6565b61369781614619565b840191505092915050565b60006136ad826144fa565b6136b7818561451b565b93506136c78185602086016145e6565b6136d081614619565b840191505092915050565b60006136e6826144fa565b6136f0818561452c565b93506137008185602086016145e6565b61370981614619565b840191505092915050565b600061372160128361452c565b91507f496e76616c6964207265717565737420696400000000000000000000000000006000830152602082019050919050565b6000613761601b8361452c565b91507f5265717565737420697320616c72656164792072656a656374656400000000006000830152602082019050919050565b60006137a1601f8361452c565b91507f4163636f756e7420686f6c646572206e616d65206973207265717569726564006000830152602082019050919050565b60006137e1600d8361452c565b91507f50696e2069732077726f6e6721000000000000000000000000000000000000006000830152602082019050919050565b600061382160218361452c565b91507f53656e646572206163636f756e74206e756d62657220697320696e76616c696460008301527f21000000000000000000000000000000000000000000000000000000000000006020830152604082019050919050565b600061388760108361452c565b91507f447061792069642069732074616b656e000000000000000000000000000000006000830152602082019050919050565b60006138c7602f8361452c565b91507f412076616c6964206163636f756e742070686f6e65206e6f283130206469676960008301527f74732920697320726571756972656400000000000000000000000000000000006020830152604082019050919050565b600061392d60238361452c565b91507f5265636569766572206163636f756e74206e756d62657220697320696e76616c60008301527f69642100000000000000000000000000000000000000000000000000000000006020830152604082019050919050565b600061399360278361452c565b91507f56616c6964206163636f756e742070696e28342064696769747329206973207260008301527f65717569726564000000000000000000000000000000000000000000000000006020830152604082019050919050565b60006139f960248361452c565b91507f412076616c6964206163636f756e742070686f6e65206e6f206973207265717560008301527f69726564000000000000000000000000000000000000000000000000000000006020830152604082019050919050565b6000613a5f601b8361452c565b91507f4163636f756e74206470617920696420697320726571756972656400000000006000830152602082019050919050565b6000613a9f601c8361452c565b91507f5265717565737420697320616c72656164792066756c66696c6c6564000000006000830152602082019050919050565b6000613adf601d8361452c565b91507f4163636f756e7420676f6f676c652069642069732072657175697265640000006000830152602082019050919050565b6000613b1f60228361452c565b91507f5072696d617279206163636f756e74207374617475732069732072657175697260008301527f65640000000000000000000000000000000000000000000000000000000000006020830152604082019050919050565b6000613b85601e8361452c565b91507f4163636f756e74206e756d62657220616c7265616479206578697374732100006000830152602082019050919050565b6000613bc560308361452c565b91507f4f6e6c79206163636f756e7420686f6c6465722063616e20656469742074686560008301527f206163636f756e742064657461696c73000000000000000000000000000000006020830152604082019050919050565b6000613c2b60248361452c565b91507f526571756573746564206163636f756e74206e756d62657220697320696e766160008301527f6c696421000000000000000000000000000000000000000000000000000000006020830152604082019050919050565b6000613c9160188361452c565b91507f5472616e73616374696f6e20616d6f756e7420697320302100000000000000006000830152602082019050919050565b6000613cd160228361452c565b91507f526571756573746564206163636f756e74206e6f2e206973206e6f7420796f7560008301527f72730000000000000000000000000000000000000000000000000000000000006020830152604082019050919050565b6000613d3760178361452c565b91507f4163636f756e74206e6f2e2069732072657175697265640000000000000000006000830152602082019050919050565b6000613d7760298361452c565b91507f52657175657374656420616d6f756e74206d757374206265206d6f726520746860008301527f616e2030204554482100000000000000000000000000000000000000000000006020830152604082019050919050565b600061010083016000830151613de96000860182613e8e565b506020830151613dfc6020860182613572565b5060408301518482036040860152613e1482826136a2565b91505060608301518482036060860152613e2e82826136a2565b9150506080830151613e436080860182613e8e565b5060a083015184820360a0860152613e5b82826136a2565b91505060c0830151613e7060c08601826135bd565b5060e0830151613e8360e086018261359f565b508091505092915050565b613e9781614597565b82525050565b613ea681614597565b82525050565b6000613eb882846135db565b915081905092915050565b6000606082019050613ed86000830186613563565b613ee56020830185613581565b613ef26040830184613e9d565b949350505050565b600060c082019050613f0f6000830189613581565b8181036020830152613f218188613669565b90508181036040830152613f358187613669565b9050613f446060830186613e9d565b8181036080830152613f568185613669565b9050613f6560a08301846135ae565b979650505050505050565b600060c082019050613f856000830189613581565b8181036020830152613f9781886136db565b90508181036040830152613fab81876136db565b9050613fba6060830186613e9d565b8181036080830152613fcc81856136db565b9050613fdb60a08301846135ae565b979650505050505050565b600060a082019050613ffb6000830188613590565b6140086020830187613581565b6140156040830186613e9d565b61402260608301856135ae565b61402f60808301846135ae565b9695505050505050565b600060808201905061404e6000830187613590565b61405b6020830186613581565b6140686040830185613e9d565b6140756060830184613e9d565b95945050505050565b600060c0820190506140936000830189613590565b6140a06020830188613581565b6140ad6040830187613e9d565b6140ba6060830186613e9d565b6140c760808301856135ae565b6140d460a08301846135ae565b979650505050505050565b60006020820190506140f460008301846135ae565b92915050565b6000602082019050818103600083015261411481846136db565b905092915050565b6000602082019050818103600083015261413581613714565b9050919050565b6000602082019050818103600083015261415581613754565b9050919050565b6000602082019050818103600083015261417581613794565b9050919050565b60006020820190508181036000830152614195816137d4565b9050919050565b600060208201905081810360008301526141b581613814565b9050919050565b600060208201905081810360008301526141d58161387a565b9050919050565b600060208201905081810360008301526141f5816138ba565b9050919050565b6000602082019050818103600083015261421581613920565b9050919050565b6000602082019050818103600083015261423581613986565b9050919050565b60006020820190508181036000830152614255816139ec565b9050919050565b6000602082019050818103600083015261427581613a52565b9050919050565b6000602082019050818103600083015261429581613a92565b9050919050565b600060208201905081810360008301526142b581613ad2565b9050919050565b600060208201905081810360008301526142d581613b12565b9050919050565b600060208201905081810360008301526142f581613b78565b9050919050565b6000602082019050818103600083015261431581613bb8565b9050919050565b6000602082019050818103600083015261433581613c1e565b9050919050565b6000602082019050818103600083015261435581613c84565b9050919050565b6000602082019050818103600083015261437581613cc4565b9050919050565b6000602082019050818103600083015261439581613d2a565b9050919050565b600060208201905081810360008301526143b581613d6a565b9050919050565b600060208201905081810360008301526143d68184613dd0565b905092915050565b60006020820190506143f36000830184613e9d565b92915050565b60006101008201905061440f600083018b613e9d565b61441c602083018a613581565b818103604083015261442e81896136db565b9050818103606083015261444281886136db565b90506144516080830187613e9d565b81810360a083015261446381866136db565b905061447260c08301856135cc565b61447f60e08301846135ae565b9998505050505050505050565b6000604051905081810181811067ffffffffffffffff821117156144af57600080fd5b8060405250919050565b600067ffffffffffffffff8211156144d057600080fd5b601f19601f8301169050602081019050919050565b60008190508160005260206000209050919050565b600081519050919050565b600081519050919050565b600081905092915050565b600082825260208201905092915050565b600082825260208201905092915050565b600061454882614577565b9050919050565b600061455a82614577565b9050919050565b60008115159050919050565b6000819050919050565b600073ffffffffffffffffffffffffffffffffffffffff82169050919050565b6000819050919050565b60006145ac826145b3565b9050919050565b60006145be826145c5565b9050919050565b60006145d082614577565b9050919050565b82818337600083830152505050565b60005b838110156146045780820151818401526020810190506145e9565b83811115614613576000848401525b50505050565b6000601f19601f8301169050919050565b6146338161453d565b811461463e57600080fd5b50565b61464a8161454f565b811461465557600080fd5b50565b61466181614561565b811461466c57600080fd5b50565b61467881614597565b811461468357600080fd5b5056fea365627a7a72315820193d987cc19dc916bb5cdc981aed99e2d8292c35a47b08cff00c1151d7499d856c6578706572696d656e74616cf564736f6c63430005100040",
  "source": "pragma solidity ^0.5.0;\r\npragma experimental ABIEncoderV2;\r\n\r\ncontract DAppPay{\r\n\tstring public name;\r\n\r\n\t/* Store accounts */\r\n\tmapping(address => bool) public accountNumbers;\r\n\tuint public accountsCount;\r\n\tmapping(uint => Account) public accounts;\r\n\tstruct Account{\r\n\t\tuint accountId;\r\n\t\taddress payable accountNo;\r\n\t\tstring accountHolderName;\r\n\t\tstring dpayId;\r\n\t\tuint phoneNo;\r\n\t\tstring googleId;\r\n\t\tbytes32 pin;\r\n\t\tbool isPrimaryAccount;\r\n\t}\r\n\r\n\t/* Store request-money */\r\n\tuint public requestsCount;\r\n\tmapping(uint => Request) public requests;\r\n\tstruct Request{\r\n\t\taddress requestingTo;\r\n\t\taddress payable requestingFrom;\r\n\t\tuint amount;\r\n\t\tuint time;\r\n\t\tbool isFulfilled;\r\n\t\tbool isRejected;\r\n\t}\r\n\r\n\t/* Store transaction history */\r\n\tuint public transactionsCount;\r\n\tmapping(uint => Transaction) public transactions;\r\n\tstruct Transaction{\r\n\t\taddress sender;\r\n\t\taddress payable receiver;\r\n\t\tuint amount;\r\n\t\tuint time;\r\n\t}\r\n\r\n\tconstructor() public{\r\n\t\tname = \"DAppPay\";\r\n\t\taccountsCount = 0;\r\n\t}\r\n\r\n\t/* Modifiers */\r\n\tmodifier onlyExistingAccount{\r\n\t\trequire(accountNumbers[msg.sender], 'Sender account number is invalid!');\r\n      \t_;\r\n\t}\r\n\r\n\tmodifier onlyUniqiueAccount{\r\n\t\trequire(!accountNumbers[msg.sender], 'Account number already exists!');\r\n      \t_;\r\n\t}\r\n\t\r\n\t/* Events */\r\n\tevent AccountCreated(uint indexed accountId, address payable accountNo, string accountHolderName, string dpayId, uint phoneNo, string googleId, bool isPrimaryAccount);\r\n\tevent AccountEdited(uint indexed accountId, address payable accountNo, string accountHolderName, string dpayId, uint phoneNo, string googleId, bool isPrimaryAccount);\r\n\tevent AmmountTransfered(address sender, address payable receiver, uint amount);\r\n\tevent AmmountRequested(address requestingTo, address payable requestingFrom, uint amount, bool isFulfilled, bool isRejected);\r\n\tevent FulFillAmmountRequested(address requestingTo, address payable requestingFrom, uint amount, bool isFulfilled, bool isRejected);\r\n\tevent RejectAmmountRequested(address requestingTo, address payable requestingFrom, uint amount, bool isFulfilled, bool isRejected);\r\n\r\n\t/* Main Functions */\r\n\tfunction createAccount(string memory _accountHolderName, string memory _dpayId, uint _phoneNo, string memory _googleId, string memory _pin) public onlyUniqiueAccount{\r\n\t\t// Make sure the inputs exists\r\n\t\trequire(msg.sender != address(0x0), \"Account no. is required\");\r\n\t\trequire(bytes(_accountHolderName).length > 0, \"Account holder name is required\");\r\n\t\trequire(bytes(_dpayId).length > 0, \"Account dpay id is required\");\r\n\t\trequire(_phoneNo != 0, \"A valid account phone no is required\");\r\n\t\trequire(bytes(_googleId).length > 0, \"Account google id is required\");\r\n\t\trequire(bytes(_pin).length == 4, \"Valid account pin(4 digits) is required\");\r\n\r\n\t\t// Make sure dpay id is unique\r\n\t\tAccount memory _account = _getAccountUsingDpayId(_dpayId);\r\n\t\tif(bytes(_account.dpayId).length != 0){\r\n\t\t\trevert(\"Dpay id is taken\");\r\n\t\t}\r\n\r\n\t\t// Add account\r\n\t\taccountsCount++;\r\n\t\taccounts[accountsCount] = Account(accountsCount, msg.sender, _accountHolderName, _dpayId, _phoneNo, _googleId, keccak256(bytes(_pin)), false);\r\n\t\taccountNumbers[msg.sender] = true;\r\n\r\n\t\t// Trigger event\r\n\t\temit AccountCreated(accountsCount, msg.sender, _accountHolderName,_dpayId, _phoneNo, _googleId, false);\r\n\t}\r\n\r\n\tfunction editAccount(string memory _accountHolderName, string memory _dpayId, uint _phoneNo, string memory _oldPin, string memory _newPin, bool _isPrimaryAccount) public onlyExistingAccount{\r\n\t\t// Make sure dpay id is unique\r\n\t\tAccount memory _account = _getAccountUsingDpayId(_dpayId);\r\n\t\tif(bytes(_account.dpayId).length != 0){\r\n\t\t\tif(_account.accountNo != msg.sender){\r\n\t\t\t\trevert(\"Dpay id is taken\");\r\n\t\t\t}\r\n\t\t}\r\n\r\n\t\t_account = _getAccountUsingAccountNumber(msg.sender);\r\n\r\n\t\t// Make sure account pin is same as the pin entered by the user(sender)\r\n\t\trequire(_getAccountPin(msg.sender) == keccak256(bytes(_oldPin)), \"Pin is wrong!\");\r\n\r\n\t\t// Make sure the inputs exists\r\n\t\trequire(msg.sender != address(0x0), \"Account no. is required\");\r\n\t\trequire(bytes(_accountHolderName).length > 0, \"Account holder name is required\");\r\n\t\trequire(bytes(_dpayId).length > 0, \"Account dpay id is required\");\r\n\t\trequire(_phoneNo != 0, \"A valid account phone no(10 digits) is required\");\r\n\t\trequire(bytes(_oldPin).length == 4, \"Valid account pin(4 digits) is required\");\r\n\t\trequire(bytes(_newPin).length == 4, \"Valid account pin(4 digits) is required\");\r\n\t\trequire(_isPrimaryAccount == false || _isPrimaryAccount == true, \"Primary account status is required\");\r\n\r\n\t\t// Make sure account address is msg.sender only\r\n\t\trequire(_account.accountNo == msg.sender, \"Only account holder can edit the account details\");\r\n\r\n\t\t// Edit account\r\n\t\t_account.accountHolderName = _accountHolderName;\r\n\t\t_account.dpayId = _dpayId;\r\n\t\t_account.phoneNo = _phoneNo;\r\n\t\t_account.pin = keccak256(bytes(_newPin));\r\n\t\t_account.isPrimaryAccount = _isPrimaryAccount;\r\n\r\n\t\t// If _isPrimaryAccount==true then set _isPrimaryAccount=false in other account's of same user\r\n\t\tif(_isPrimaryAccount==true){\r\n\t\t\tfor (uint i = 1; i <= accountsCount; i++) {\r\n\t\t\t\tif(keccak256(bytes(accounts[i].googleId)) == keccak256(bytes(_account.googleId))){\r\n\t\t\t\t\tif(accounts[i].accountNo != msg.sender){\r\n\t\t\t\t\t\tif(accounts[i].isPrimaryAccount){\r\n\t\t\t\t\t\t\taccounts[i].isPrimaryAccount = false;\r\n\t\t\t\t\t\t}\r\n\t\t\t\t\t}\r\n\t\t\t\t}\r\n\t\t\t}\r\n\t\t}\r\n\r\n\t\t// Store edited account\r\n\t\taccounts[_account.accountId] = _account;\r\n\r\n\t\t// Trigger event\r\n\t\temit AccountEdited(_account.accountId, msg.sender, _account.accountHolderName, _account.dpayId, _account.phoneNo, _account.googleId, _account.isPrimaryAccount);\r\n\t}\r\n\r\n\tfunction sendAmount(address payable _receiver, string memory _pin) public payable onlyExistingAccount{\r\n\t\t// Make sure receiver account address exists\r\n\t\trequire(accountNumbers[_receiver], \"Receiver account number is invalid!\" );\r\n\r\n\t\t// Make transaction amount is not 0\r\n\t\trequire(msg.value != 0, \"Transaction amount is 0!\" );\r\n\r\n\t\t// Make sure account pin is same as the pin entered by the user(sender)\r\n\t\trequire(_getAccountPin(msg.sender) == keccak256(bytes(_pin)), \"Pin is wrong!\");\r\n\r\n\t\t// Transfer amount to receiver\r\n\t\taddress(_receiver).transfer(msg.value);\r\n\t\ttransactionsCount++;\r\n\t\ttransactions[transactionsCount] = Transaction(msg.sender, _receiver, msg.value, block.timestamp);\r\n\r\n\t\t// Trigger event\r\n\t\temit AmmountTransfered(msg.sender, _receiver, msg.value);\r\n\t}\r\n\r\n\tfunction requestAmount(address _requestTo, uint _amount) public onlyExistingAccount{\r\n\t\t// Make sure requested account address exists\r\n\t\trequire(accountNumbers[_requestTo], \"Requested account number is invalid!\" );\r\n\t\t// Make sure requested amount is valid\r\n\t\trequire(_amount > 0, \"Requested amount must be more than 0 ETH!\" );\r\n\r\n\t\t// Add request\r\n\t\trequestsCount++;\r\n\t\trequests[requestsCount] = Request(_requestTo, msg.sender, _amount, block.timestamp, false, false);\r\n\r\n\t\t// Trigger event\r\n\t\temit AmmountRequested(_requestTo, msg.sender, _amount, false, false);\r\n\t}\r\n\r\n\tfunction fulfillRequestedAmount(uint requestId, string memory _pin) public payable onlyExistingAccount{\r\n\t\t// Make sure request id is valid\r\n\t\trequire(requestId > 0 && requestId <= requestsCount, \"Invalid request id\");\r\n\r\n\t\tRequest memory _request = requests[requestId];\r\n\r\n\t\t// Make sure request is not rejected\r\n\t\trequire(!_request.isRejected, \"Request is already rejected\");\r\n\r\n\t\t// Make sure requested address is changing the data\r\n\t\trequire(_request.requestingTo == msg.sender, \"Requested account no. is not yours\");\r\n\r\n\t\t// Make transaction\r\n\t\tsendAmount(_request.requestingFrom, _pin);\r\n\r\n\t\t// Mark request as fulfilled\r\n\t\t_request.isFulfilled = true;\r\n\t\trequests[requestId] = _request;\r\n\t\t\r\n\t\t// Trigger event\r\n\t\temit FulFillAmmountRequested(_request.requestingTo, _request.requestingFrom, _request.amount, _request.isFulfilled, _request.isRejected);\r\n\t}\r\n\r\n\tfunction rejectRequestedAmount(uint requestId) public onlyExistingAccount{\r\n\t\t// Make sure request id is valid\r\n\t\trequire(requestId > 0 && requestId <= requestsCount, \"Invalid request id\");\r\n\t\t\r\n\t\tRequest memory _request = requests[requestId];\r\n\r\n\t\t// Make sure request is not fulfilled\r\n\t\trequire(!_request.isFulfilled, \"Request is already fulfilled\");\r\n\r\n\t\t// Make sure requested address is changing the data\r\n\t\trequire(_request.requestingTo == msg.sender, \"Requested account no. is not yours\");\r\n\r\n\r\n\t\t// Mark request as rejected\r\n\t\t_request.isRejected = true;\r\n\t\trequests[requestId] = _request;\r\n\t\t\r\n\t\t// Trigger event\r\n\t\temit RejectAmmountRequested(_request.requestingTo, _request.requestingFrom, _request.amount, _request.isFulfilled, _request.isRejected);\r\n\t}\r\n\r\n\t/* Helper Functions */\r\n\tfunction _getAccountUsingAccountNumber(address _accountNo) public view returns(Account memory){\r\n\t\tfor(uint i=1; i<=accountsCount; i++){\r\n\t\t\tif(accounts[i].accountNo == _accountNo){\r\n\t\t\t\tAccount memory _account = accounts[i];\r\n\t\t\t\tdelete _account.pin;\r\n\t\t\t\treturn _account;\r\n\t\t\t}\r\n\t\t}\r\n\t}\r\n\r\n\tfunction _getAccountUsingDpayId(string memory _dpayId) public view returns(Account memory){\r\n\t\tfor(uint i=1; i<=accountsCount; i++){\r\n\t\t\tif(keccak256(bytes(accounts[i].dpayId)) == keccak256(bytes(_dpayId))){\r\n\t\t\t\tAccount memory _account = accounts[i];\r\n\t\t\t\tdelete _account.pin;\r\n\t\t\t\treturn _account;\r\n\t\t\t}\r\n\t\t}\r\n\t}\r\n\r\n\tfunction _getAccountUsingPhoneNumber(uint _phoneNo) public view returns(Account memory){\r\n\t\tAccount memory _account;\r\n\t\tbool isAccountExist;\r\n\t\tfor(uint i=1; i<=accountsCount; i++){\r\n\t\t\tif(accounts[i].phoneNo == _phoneNo){\r\n\t\t\t\t_account = accounts[i];\r\n\t\t\t\tdelete _account.pin;\r\n\t\t\t\tisAccountExist=true;\r\n\t\t\t\t// return _account;\r\n\t\t\t}\r\n\t\t}\r\n\r\n\t\tif(isAccountExist){\r\n\t\t\tfor(uint i=1; i<=accountsCount; i++){\r\n\t\t\t\tif(accounts[i].phoneNo == _phoneNo && accounts[i].isPrimaryAccount){\r\n\t\t\t\t\t_account = accounts[i];\r\n\t\t\t\t\tdelete _account.pin;\r\n\t\t\t\t\treturn _account;\r\n\t\t\t\t}\r\n\t\t\t}\r\n\t\t}\r\n\t\treturn _account;\r\n\t}\r\n\r\n\tfunction _getAccountPin(address _accountNo) private view onlyExistingAccount returns(bytes32){\r\n\t\tfor(uint i=1; i<=accountsCount; i++){\r\n\t\t\tif(accounts[i].accountNo == _accountNo){\r\n\t\t\t\treturn accounts[i].pin;\r\n\t\t\t}\r\n\t\t}\r\n\t}\r\n}",
  "sourcePath": "D:\\Engineering\\Dev\\Blockchain Development\\Projects\\DAppPay\\src\\contracts\\DAppPay.sol",
  "compiler": {
    "name": "solc",
    "version": "0.5.16+commit.9c3226ce.Emscripten.clang"
  },
  "schemaVersion": "3.4.3",
  "updatedAt": "2021-10-14T10:04:26.448Z",
  "networkType": "ethereum",
  "devdoc": {
    "methods": {}
  },
  "userdoc": {
    "methods": {}
  }
}