{
  "contractName": "DAppPay",
  "abi": [
    {
      "inputs": [],
      "payable": false,
      "stateMutability": "nonpayable",
      "type": "constructor"
    },
    {
      "anonymous": false,
      "inputs": [
        {
          "indexed": true,
          "internalType": "uint256",
          "name": "accountId",
          "type": "uint256"
        },
        {
          "indexed": false,
          "internalType": "address payable",
          "name": "accountNo",
          "type": "address"
        },
        {
          "indexed": false,
          "internalType": "string",
          "name": "accountHolderName",
          "type": "string"
        },
        {
          "indexed": false,
          "internalType": "string",
          "name": "dpayId",
          "type": "string"
        },
        {
          "indexed": false,
          "internalType": "uint256",
          "name": "phoneNo",
          "type": "uint256"
        },
        {
          "indexed": false,
          "internalType": "string",
          "name": "googleId",
          "type": "string"
        },
        {
          "indexed": false,
          "internalType": "bool",
          "name": "isPrimaryAccount",
          "type": "bool"
        }
      ],
      "name": "AccountCreated",
      "type": "event"
    },
    {
      "anonymous": false,
      "inputs": [
        {
          "indexed": true,
          "internalType": "uint256",
          "name": "accountId",
          "type": "uint256"
        },
        {
          "indexed": false,
          "internalType": "address payable",
          "name": "accountNo",
          "type": "address"
        },
        {
          "indexed": false,
          "internalType": "string",
          "name": "accountHolderName",
          "type": "string"
        },
        {
          "indexed": false,
          "internalType": "string",
          "name": "dpayId",
          "type": "string"
        },
        {
          "indexed": false,
          "internalType": "uint256",
          "name": "phoneNo",
          "type": "uint256"
        },
        {
          "indexed": false,
          "internalType": "string",
          "name": "googleId",
          "type": "string"
        },
        {
          "indexed": false,
          "internalType": "bool",
          "name": "isPrimaryAccount",
          "type": "bool"
        }
      ],
      "name": "AccountEdited",
      "type": "event"
    },
    {
      "anonymous": false,
      "inputs": [
        {
          "indexed": false,
          "internalType": "address",
          "name": "requestingTo",
          "type": "address"
        },
        {
          "indexed": false,
          "internalType": "address payable",
          "name": "requestingFrom",
          "type": "address"
        },
        {
          "indexed": false,
          "internalType": "uint256",
          "name": "amount",
          "type": "uint256"
        },
        {
          "indexed": false,
          "internalType": "bool",
          "name": "isFulfilled",
          "type": "bool"
        },
        {
          "indexed": false,
          "internalType": "bool",
          "name": "isRejected",
          "type": "bool"
        }
      ],
      "name": "AmmountRequested",
      "type": "event"
    },
    {
      "anonymous": false,
      "inputs": [
        {
          "indexed": false,
          "internalType": "address",
          "name": "sender",
          "type": "address"
        },
        {
          "indexed": false,
          "internalType": "address payable",
          "name": "receiver",
          "type": "address"
        },
        {
          "indexed": false,
          "internalType": "uint256",
          "name": "amount",
          "type": "uint256"
        }
      ],
      "name": "AmmountTransfered",
      "type": "event"
    },
    {
      "anonymous": false,
      "inputs": [
        {
          "indexed": false,
          "internalType": "address",
          "name": "requestingTo",
          "type": "address"
        },
        {
          "indexed": false,
          "internalType": "address payable",
          "name": "requestingFrom",
          "type": "address"
        },
        {
          "indexed": false,
          "internalType": "uint256",
          "name": "amount",
          "type": "uint256"
        },
        {
          "indexed": false,
          "internalType": "bool",
          "name": "isFulfilled",
          "type": "bool"
        },
        {
          "indexed": false,
          "internalType": "bool",
          "name": "isRejected",
          "type": "bool"
        }
      ],
      "name": "FulFillAmmountRequested",
      "type": "event"
    },
    {
      "anonymous": false,
      "inputs": [
        {
          "indexed": false,
          "internalType": "address",
          "name": "requestingTo",
          "type": "address"
        },
        {
          "indexed": false,
          "internalType": "address payable",
          "name": "requestingFrom",
          "type": "address"
        },
        {
          "indexed": false,
          "internalType": "uint256",
          "name": "amount",
          "type": "uint256"
        },
        {
          "indexed": false,
          "internalType": "bool",
          "name": "isFulfilled",
          "type": "bool"
        },
        {
          "indexed": false,
          "internalType": "bool",
          "name": "isRejected",
          "type": "bool"
        }
      ],
      "name": "RejectAmmountRequested",
      "type": "event"
    },
    {
      "constant": true,
      "inputs": [
        {
          "internalType": "address",
          "name": "",
          "type": "address"
        }
      ],
      "name": "accountNumbers",
      "outputs": [
        {
          "internalType": "bool",
          "name": "",
          "type": "bool"
        }
      ],
      "payable": false,
      "stateMutability": "view",
      "type": "function"
    },
    {
      "constant": true,
      "inputs": [
        {
          "internalType": "uint256",
          "name": "",
          "type": "uint256"
        }
      ],
      "name": "accounts",
      "outputs": [
        {
          "internalType": "uint256",
          "name": "accountId",
          "type": "uint256"
        },
        {
          "internalType": "address payable",
          "name": "accountNo",
          "type": "address"
        },
        {
          "internalType": "string",
          "name": "accountHolderName",
          "type": "string"
        },
        {
          "internalType": "string",
          "name": "dpayId",
          "type": "string"
        },
        {
          "internalType": "uint256",
          "name": "phoneNo",
          "type": "uint256"
        },
        {
          "internalType": "string",
          "name": "googleId",
          "type": "string"
        },
        {
          "internalType": "bytes32",
          "name": "pin",
          "type": "bytes32"
        },
        {
          "internalType": "bool",
          "name": "isPrimaryAccount",
          "type": "bool"
        }
      ],
      "payable": false,
      "stateMutability": "view",
      "type": "function"
    },
    {
      "constant": true,
      "inputs": [],
      "name": "accountsCount",
      "outputs": [
        {
          "internalType": "uint256",
          "name": "",
          "type": "uint256"
        }
      ],
      "payable": false,
      "stateMutability": "view",
      "type": "function"
    },
    {
      "constant": true,
      "inputs": [],
      "name": "name",
      "outputs": [
        {
          "internalType": "string",
          "name": "",
          "type": "string"
        }
      ],
      "payable": false,
      "stateMutability": "view",
      "type": "function"
    },
    {
      "constant": true,
      "inputs": [
        {
          "internalType": "uint256",
          "name": "",
          "type": "uint256"
        }
      ],
      "name": "requests",
      "outputs": [
        {
          "internalType": "address",
          "name": "requestingTo",
          "type": "address"
        },
        {
          "internalType": "address payable",
          "name": "requestingFrom",
          "type": "address"
        },
        {
          "internalType": "uint256",
          "name": "amount",
          "type": "uint256"
        },
        {
          "internalType": "uint256",
          "name": "time",
          "type": "uint256"
        },
        {
          "internalType": "bool",
          "name": "isFulfilled",
          "type": "bool"
        },
        {
          "internalType": "bool",
          "name": "isRejected",
          "type": "bool"
        }
      ],
      "payable": false,
      "stateMutability": "view",
      "type": "function"
    },
    {
      "constant": true,
      "inputs": [],
      "name": "requestsCount",
      "outputs": [
        {
          "internalType": "uint256",
          "name": "",
          "type": "uint256"
        }
      ],
      "payable": false,
      "stateMutability": "view",
      "type": "function"
    },
    {
      "constant": true,
      "inputs": [
        {
          "internalType": "uint256",
          "name": "",
          "type": "uint256"
        }
      ],
      "name": "transactions",
      "outputs": [
        {
          "internalType": "address",
          "name": "sender",
          "type": "address"
        },
        {
          "internalType": "address payable",
          "name": "receiver",
          "type": "address"
        },
        {
          "internalType": "uint256",
          "name": "amount",
          "type": "uint256"
        },
        {
          "internalType": "uint256",
          "name": "time",
          "type": "uint256"
        }
      ],
      "payable": false,
      "stateMutability": "view",
      "type": "function"
    },
    {
      "constant": true,
      "inputs": [],
      "name": "transactionsCount",
      "outputs": [
        {
          "internalType": "uint256",
          "name": "",
          "type": "uint256"
        }
      ],
      "payable": false,
      "stateMutability": "view",
      "type": "function"
    },
    {
      "constant": false,
      "inputs": [
        {
          "internalType": "string",
          "name": "_accountHolderName",
          "type": "string"
        },
        {
          "internalType": "string",
          "name": "_dpayId",
          "type": "string"
        },
        {
          "internalType": "uint256",
          "name": "_phoneNo",
          "type": "uint256"
        },
        {
          "internalType": "string",
          "name": "_googleId",
          "type": "string"
        },
        {
          "internalType": "string",
          "name": "_pin",
          "type": "string"
        }
      ],
      "name": "createAccount",
      "outputs": [],
      "payable": false,
      "stateMutability": "nonpayable",
      "type": "function"
    },
    {
      "constant": false,
      "inputs": [
        {
          "internalType": "string",
          "name": "_accountHolderName",
          "type": "string"
        },
        {
          "internalType": "string",
          "name": "_dpayId",
          "type": "string"
        },
        {
          "internalType": "uint256",
          "name": "_phoneNo",
          "type": "uint256"
        },
        {
          "internalType": "string",
          "name": "_oldPin",
          "type": "string"
        },
        {
          "internalType": "string",
          "name": "_newPin",
          "type": "string"
        },
        {
          "internalType": "bool",
          "name": "_isPrimaryAccount",
          "type": "bool"
        }
      ],
      "name": "editAccount",
      "outputs": [],
      "payable": false,
      "stateMutability": "nonpayable",
      "type": "function"
    },
    {
      "constant": false,
      "inputs": [
        {
          "internalType": "address payable",
          "name": "_receiver",
          "type": "address"
        },
        {
          "internalType": "string",
          "name": "_pin",
          "type": "string"
        }
      ],
      "name": "sendAmount",
      "outputs": [],
      "payable": true,
      "stateMutability": "payable",
      "type": "function"
    },
    {
      "constant": false,
      "inputs": [
        {
          "internalType": "address",
          "name": "_requestTo",
          "type": "address"
        },
        {
          "internalType": "uint256",
          "name": "_amount",
          "type": "uint256"
        }
      ],
      "name": "requestAmount",
      "outputs": [],
      "payable": false,
      "stateMutability": "nonpayable",
      "type": "function"
    },
    {
      "constant": false,
      "inputs": [
        {
          "internalType": "uint256",
          "name": "requestId",
          "type": "uint256"
        },
        {
          "internalType": "string",
          "name": "_pin",
          "type": "string"
        }
      ],
      "name": "fulfillRequestedAmount",
      "outputs": [],
      "payable": true,
      "stateMutability": "payable",
      "type": "function"
    },
    {
      "constant": false,
      "inputs": [
        {
          "internalType": "uint256",
          "name": "requestId",
          "type": "uint256"
        }
      ],
      "name": "rejectRequestedAmount",
      "outputs": [],
      "payable": false,
      "stateMutability": "nonpayable",
      "type": "function"
    },
    {
      "constant": true,
      "inputs": [
        {
          "internalType": "address",
          "name": "_accountNo",
          "type": "address"
        }
      ],
      "name": "_getAccountUsingAccountNumber",
      "outputs": [
        {
          "components": [
            {
              "internalType": "uint256",
              "name": "accountId",
              "type": "uint256"
            },
            {
              "internalType": "address payable",
              "name": "accountNo",
              "type": "address"
            },
            {
              "internalType": "string",
              "name": "accountHolderName",
              "type": "string"
            },
            {
              "internalType": "string",
              "name": "dpayId",
              "type": "string"
            },
            {
              "internalType": "uint256",
              "name": "phoneNo",
              "type": "uint256"
            },
            {
              "internalType": "string",
              "name": "googleId",
              "type": "string"
            },
            {
              "internalType": "bytes32",
              "name": "pin",
              "type": "bytes32"
            },
            {
              "internalType": "bool",
              "name": "isPrimaryAccount",
              "type": "bool"
            }
          ],
          "internalType": "struct DAppPay.Account",
          "name": "",
          "type": "tuple"
        }
      ],
      "payable": false,
      "stateMutability": "view",
      "type": "function"
    },
    {
      "constant": true,
      "inputs": [
        {
          "internalType": "string",
          "name": "_dpayId",
          "type": "string"
        }
      ],
      "name": "_getAccountUsingDpayId",
      "outputs": [
        {
          "components": [
            {
              "internalType": "uint256",
              "name": "accountId",
              "type": "uint256"
            },
            {
              "internalType": "address payable",
              "name": "accountNo",
              "type": "address"
            },
            {
              "internalType": "string",
              "name": "accountHolderName",
              "type": "string"
            },
            {
              "internalType": "string",
              "name": "dpayId",
              "type": "string"
            },
            {
              "internalType": "uint256",
              "name": "phoneNo",
              "type": "uint256"
            },
            {
              "internalType": "string",
              "name": "googleId",
              "type": "string"
            },
            {
              "internalType": "bytes32",
              "name": "pin",
              "type": "bytes32"
            },
            {
              "internalType": "bool",
              "name": "isPrimaryAccount",
              "type": "bool"
            }
          ],
          "internalType": "struct DAppPay.Account",
          "name": "",
          "type": "tuple"
        }
      ],
      "payable": false,
      "stateMutability": "view",
      "type": "function"
    },
    {
      "constant": true,
      "inputs": [
        {
          "internalType": "uint256",
          "name": "_phoneNo",
          "type": "uint256"
        }
      ],
      "name": "_getAccountUsingPhoneNumber",
      "outputs": [
        {
          "components": [
            {
              "internalType": "uint256",
              "name": "accountId",
              "type": "uint256"
            },
            {
              "internalType": "address payable",
              "name": "accountNo",
              "type": "address"
            },
            {
              "internalType": "string",
              "name": "accountHolderName",
              "type": "string"
            },
            {
              "internalType": "string",
              "name": "dpayId",
              "type": "string"
            },
            {
              "internalType": "uint256",
              "name": "phoneNo",
              "type": "uint256"
            },
            {
              "internalType": "string",
              "name": "googleId",
              "type": "string"
            },
            {
              "internalType": "bytes32",
              "name": "pin",
              "type": "bytes32"
            },
            {
              "internalType": "bool",
              "name": "isPrimaryAccount",
              "type": "bool"
            }
          ],
          "internalType": "struct DAppPay.Account",
          "name": "",
          "type": "tuple"
        }
      ],
      "payable": false,
      "stateMutability": "view",
      "type": "function"
    }
  ],
  "bytecode": "0x60806040523480156200001157600080fd5b506040518060400160405280600781526020017f4441707050617900000000000000000000000000000000000000000000000000815250600090805190602001906200005f9291906200006e565b5060006002819055506200011d565b828054600181600116156101000203166002900490600052602060002090601f016020900481019282601f10620000b157805160ff1916838001178555620000e2565b82800160010185558215620000e2579182015b82811115620000e1578251825591602001919060010190620000c4565b5b509050620000f19190620000f5565b5090565b6200011a91905b8082111562000116576000816000905550600101620000fc565b5090565b90565b614308806200012d6000396000f3fe6080604052600436106100fe5760003560e01c80639ace38c211610095578063e9cfff7f11610064578063e9cfff7f14610345578063f2a40db814610382578063f2a45f62146103c6578063fbfa4b7f146103ef578063fd99a7461461041a576100fe565b80639ace38c21461028a5780639cf08314146102ca578063cedfe204146102f3578063e37a74ff1461031c576100fe565b806327538b30116100d157806327538b30146101c457806381d12c58146101ef5780638cca8a501461023157806394708bec1461024d576100fe565b806306fdde03146101035780630894777d1461012e57806311a421051461016b5780631f75a63514610187575b600080fd5b34801561010f57600080fd5b50610118610445565b6040516101259190613d59565b60405180910390f35b34801561013a57600080fd5b5061015560048036036101509190810190612ecb565b6104e3565b6040516101629190613d3e565b60405180910390f35b61018560048036036101809190810190612ef4565b610503565b005b34801561019357600080fd5b506101ae60048036036101a99190810190612ecb565b61080b565b6040516101bb9190613ffb565b60405180910390f35b3480156101d057600080fd5b506101d9610b55565b6040516101e6919061401d565b60405180910390f35b3480156101fb57600080fd5b5061021660048036036102119190810190613185565b610b5b565b60405161022896959493929190613cdd565b60405180910390f35b61024b600480360361024691908101906131ae565b610bf1565b005b34801561025957600080fd5b50610274600480360361026f9190810190612f84565b611013565b6040516102819190613ffb565b60405180910390f35b34801561029657600080fd5b506102b160048036036102ac9190810190613185565b61132c565b6040516102c19493929190613c98565b60405180910390f35b3480156102d657600080fd5b506102f160048036036102ec9190810190612fc5565b61139c565b005b3480156102ff57600080fd5b5061031a60048036036103159190810190613185565b61184e565b005b34801561032857600080fd5b50610343600480360361033e9190810190612f48565b611c61565b005b34801561035157600080fd5b5061036c60048036036103679190810190613185565b611f6b565b6040516103799190613ffb565b60405180910390f35b34801561038e57600080fd5b506103a960048036036103a49190810190613185565b612269565b6040516103bd989796959493929190614038565b60405180910390f35b3480156103d257600080fd5b506103ed60048036036103e8919081019061309c565b6124a6565b005b3480156103fb57600080fd5b50610404612b71565b604051610411919061401d565b60405180910390f35b34801561042657600080fd5b5061042f612b77565b60405161043c919061401d565b60405180910390f35b60008054600181600116156101000203166002900480601f0160208091040260200160405190810160405280929190818152602001828054600181600116156101000203166002900480156104db5780601f106104b0576101008083540402835291602001916104db565b820191906000526020600020905b8154815290600101906020018083116104be57829003601f168201915b505050505081565b60016020528060005260406000206000915054906101000a900460ff1681565b600160003373ffffffffffffffffffffffffffffffffffffffff1673ffffffffffffffffffffffffffffffffffffffff16815260200190815260200160002060009054906101000a900460ff1661058f576040517f08c379a000000000000000000000000000000000000000000000000000000000815260040161058690613dfb565b60405180910390fd5b600160008373ffffffffffffffffffffffffffffffffffffffff1673ffffffffffffffffffffffffffffffffffffffff16815260200190815260200160002060009054906101000a900460ff1661061b576040517f08c379a000000000000000000000000000000000000000000000000000000000815260040161061290613e5b565b60405180910390fd5b808051906020012061062c33612b7d565b1461066c576040517f08c379a000000000000000000000000000000000000000000000000000000000815260040161066390613ddb565b60405180910390fd5b8173ffffffffffffffffffffffffffffffffffffffff166108fc349081150290604051600060405180830381858888f193505050501580156106b2573d6000803e3d6000fd5b5060066000815480929190600101919050555060405180608001604052803373ffffffffffffffffffffffffffffffffffffffff1681526020018373ffffffffffffffffffffffffffffffffffffffff1681526020013481526020014281525060076000600654815260200190815260200160002060008201518160000160006101000a81548173ffffffffffffffffffffffffffffffffffffffff021916908373ffffffffffffffffffffffffffffffffffffffff16021790555060208201518160010160006101000a81548173ffffffffffffffffffffffffffffffffffffffff021916908373ffffffffffffffffffffffffffffffffffffffff16021790555060408201518160020155606082015181600301559050507fb688dba62d2365cd04ed933cad5a6de86bedb1459b36d1bbe954a49b254c1edc3383346040516107ff93929190613b22565b60405180910390a15050565b610813612cb8565b6000600190505b6002548111610b4e578273ffffffffffffffffffffffffffffffffffffffff166003600083815260200190815260200160002060010160009054906101000a900473ffffffffffffffffffffffffffffffffffffffff1673ffffffffffffffffffffffffffffffffffffffff161415610b4157610895612cb8565b6003600083815260200190815260200160002060405180610100016040529081600082015481526020016001820160009054906101000a900473ffffffffffffffffffffffffffffffffffffffff1673ffffffffffffffffffffffffffffffffffffffff1673ffffffffffffffffffffffffffffffffffffffff168152602001600282018054600181600116156101000203166002900480601f0160208091040260200160405190810160405280929190818152602001828054600181600116156101000203166002900480156109ad5780601f10610982576101008083540402835291602001916109ad565b820191906000526020600020905b81548152906001019060200180831161099057829003601f168201915b50505050508152602001600382018054600181600116156101000203166002900480601f016020809104026020016040519081016040528092919081815260200182805460018160011615610100020316600290048015610a4f5780601f10610a2457610100808354040283529160200191610a4f565b820191906000526020600020905b815481529060010190602001808311610a3257829003601f168201915b5050505050815260200160048201548152602001600582018054600181600116156101000203166002900480601f016020809104026020016040519081016040528092919081815260200182805460018160011615610100020316600290048015610afb5780601f10610ad057610100808354040283529160200191610afb565b820191906000526020600020905b815481529060010190602001808311610ade57829003601f168201915b50505050508152602001600682015481526020016007820160009054906101000a900460ff16151515158152505090508060c00160008019168152508092505050610b50565b808060010191505061081a565b505b919050565b60025481565b60056020528060005260406000206000915090508060000160009054906101000a900473ffffffffffffffffffffffffffffffffffffffff16908060010160009054906101000a900473ffffffffffffffffffffffffffffffffffffffff16908060020154908060030154908060040160009054906101000a900460ff16908060040160019054906101000a900460ff16905086565b600160003373ffffffffffffffffffffffffffffffffffffffff1673ffffffffffffffffffffffffffffffffffffffff16815260200190815260200160002060009054906101000a900460ff16610c7d576040517f08c379a0000000000000000000000000000000000000000000000000000000008152600401610c7490613dfb565b60405180910390fd5b600082118015610c8f57506004548211155b610cce576040517f08c379a0000000000000000000000000000000000000000000000000000000008152600401610cc590613d7b565b60405180910390fd5b610cd6612d18565b600560008481526020019081526020016000206040518060c00160405290816000820160009054906101000a900473ffffffffffffffffffffffffffffffffffffffff1673ffffffffffffffffffffffffffffffffffffffff1673ffffffffffffffffffffffffffffffffffffffff1681526020016001820160009054906101000a900473ffffffffffffffffffffffffffffffffffffffff1673ffffffffffffffffffffffffffffffffffffffff1673ffffffffffffffffffffffffffffffffffffffff16815260200160028201548152602001600382015481526020016004820160009054906101000a900460ff161515151581526020016004820160019054906101000a900460ff16151515158152505090508060a0015115610e31576040517f08c379a0000000000000000000000000000000000000000000000000000000008152600401610e2890613d9b565b60405180910390fd5b3373ffffffffffffffffffffffffffffffffffffffff16816000015173ffffffffffffffffffffffffffffffffffffffff1614610ea3576040517f08c379a0000000000000000000000000000000000000000000000000000000008152600401610e9a90613f9b565b60405180910390fd5b610eb1816020015183610503565b6001816080019015159081151581525050806005600085815260200190815260200160002060008201518160000160006101000a81548173ffffffffffffffffffffffffffffffffffffffff021916908373ffffffffffffffffffffffffffffffffffffffff16021790555060208201518160010160006101000a81548173ffffffffffffffffffffffffffffffffffffffff021916908373ffffffffffffffffffffffffffffffffffffffff160217905550604082015181600201556060820151816003015560808201518160040160006101000a81548160ff02191690831515021790555060a08201518160040160016101000a81548160ff0219169083151502179055509050507f6d291ea45d14e9c320ab764e4119271af1d7ccaa2dc42addb356a52276f8967b81600001518260200151836040015184608001518560a00151604051611006959493929190613c45565b60405180910390a1505050565b61101b612cb8565b6000600190505b6002548111611325578280519060200120600360008381526020019081526020016000206003016040516110569190613b0b565b604051809103902014156113185761106c612cb8565b6003600083815260200190815260200160002060405180610100016040529081600082015481526020016001820160009054906101000a900473ffffffffffffffffffffffffffffffffffffffff1673ffffffffffffffffffffffffffffffffffffffff1673ffffffffffffffffffffffffffffffffffffffff168152602001600282018054600181600116156101000203166002900480601f0160208091040260200160405190810160405280929190818152602001828054600181600116156101000203166002900480156111845780601f1061115957610100808354040283529160200191611184565b820191906000526020600020905b81548152906001019060200180831161116757829003601f168201915b50505050508152602001600382018054600181600116156101000203166002900480601f0160208091040260200160405190810160405280929190818152602001828054600181600116156101000203166002900480156112265780601f106111fb57610100808354040283529160200191611226565b820191906000526020600020905b81548152906001019060200180831161120957829003601f168201915b5050505050815260200160048201548152602001600582018054600181600116156101000203166002900480601f0160208091040260200160405190810160405280929190818152602001828054600181600116156101000203166002900480156112d25780601f106112a7576101008083540402835291602001916112d2565b820191906000526020600020905b8154815290600101906020018083116112b557829003601f168201915b50505050508152602001600682015481526020016007820160009054906101000a900460ff16151515158152505090508060c00160008019168152508092505050611327565b8080600101915050611022565b505b919050565b60076020528060005260406000206000915090508060000160009054906101000a900473ffffffffffffffffffffffffffffffffffffffff16908060010160009054906101000a900473ffffffffffffffffffffffffffffffffffffffff16908060020154908060030154905084565b600160003373ffffffffffffffffffffffffffffffffffffffff1673ffffffffffffffffffffffffffffffffffffffff16815260200190815260200160002060009054906101000a900460ff1615611429576040517f08c379a000000000000000000000000000000000000000000000000000000000815260040161142090613f3b565b60405180910390fd5b600073ffffffffffffffffffffffffffffffffffffffff163373ffffffffffffffffffffffffffffffffffffffff161415611499576040517f08c379a000000000000000000000000000000000000000000000000000000000815260040161149090613fbb565b60405180910390fd5b60008551116114dd576040517f08c379a00000000000000000000000000000000000000000000000000000000081526004016114d490613dbb565b60405180910390fd5b6000845111611521576040517f08c379a000000000000000000000000000000000000000000000000000000000815260040161151890613ebb565b60405180910390fd5b6000831415611565576040517f08c379a000000000000000000000000000000000000000000000000000000000815260040161155c90613e9b565b60405180910390fd5b60008251116115a9576040517f08c379a00000000000000000000000000000000000000000000000000000000081526004016115a090613efb565b60405180910390fd5b60048151146115ed576040517f08c379a00000000000000000000000000000000000000000000000000000000081526004016115e490613e7b565b60405180910390fd5b6115f5612cb8565b6115fe85611013565b9050600081606001515114611648576040517f08c379a000000000000000000000000000000000000000000000000000000000815260040161163f90613e1b565b60405180910390fd5b60026000815480929190600101919050555060405180610100016040528060025481526020013373ffffffffffffffffffffffffffffffffffffffff16815260200187815260200186815260200185815260200184815260200183805190602001208152602001600015158152506003600060025481526020019081526020016000206000820151816000015560208201518160010160006101000a81548173ffffffffffffffffffffffffffffffffffffffff021916908373ffffffffffffffffffffffffffffffffffffffff1602179055506040820151816002019080519060200190611738929190612d7e565b506060820151816003019080519060200190611755929190612d7e565b506080820151816004015560a082015181600501908051906020019061177c929190612d7e565b5060c0820151816006015560e08201518160070160006101000a81548160ff02191690831515021790555090505060018060003373ffffffffffffffffffffffffffffffffffffffff1673ffffffffffffffffffffffffffffffffffffffff16815260200190815260200160002060006101000a81548160ff0219169083151502179055506002547f0cf2c3ab17072553624061a8d827174869595e538e24323cb1218efe5ac0306f3388888888600060405161183e96959493929190613b59565b60405180910390a2505050505050565b600160003373ffffffffffffffffffffffffffffffffffffffff1673ffffffffffffffffffffffffffffffffffffffff16815260200190815260200160002060009054906101000a900460ff166118da576040517f08c379a00000000000000000000000000000000000000000000000000000000081526004016118d190613dfb565b60405180910390fd5b6000811180156118ec57506004548111155b61192b576040517f08c379a000000000000000000000000000000000000000000000000000000000815260040161192290613d7b565b60405180910390fd5b611933612d18565b600560008381526020019081526020016000206040518060c00160405290816000820160009054906101000a900473ffffffffffffffffffffffffffffffffffffffff1673ffffffffffffffffffffffffffffffffffffffff1673ffffffffffffffffffffffffffffffffffffffff1681526020016001820160009054906101000a900473ffffffffffffffffffffffffffffffffffffffff1673ffffffffffffffffffffffffffffffffffffffff1673ffffffffffffffffffffffffffffffffffffffff16815260200160028201548152602001600382015481526020016004820160009054906101000a900460ff161515151581526020016004820160019054906101000a900460ff1615151515815250509050806080015115611a8e576040517f08c379a0000000000000000000000000000000000000000000000000000000008152600401611a8590613edb565b60405180910390fd5b3373ffffffffffffffffffffffffffffffffffffffff16816000015173ffffffffffffffffffffffffffffffffffffffff1614611b00576040517f08c379a0000000000000000000000000000000000000000000000000000000008152600401611af790613f9b565b60405180910390fd5b60018160a0019015159081151581525050806005600084815260200190815260200160002060008201518160000160006101000a81548173ffffffffffffffffffffffffffffffffffffffff021916908373ffffffffffffffffffffffffffffffffffffffff16021790555060208201518160010160006101000a81548173ffffffffffffffffffffffffffffffffffffffff021916908373ffffffffffffffffffffffffffffffffffffffff160217905550604082015181600201556060820151816003015560808201518160040160006101000a81548160ff02191690831515021790555060a08201518160040160016101000a81548160ff0219169083151502179055509050507f9f606a536304aa1cd828e173187ec5dc1cf719221b26f2f0da4d6b1b7441049d81600001518260200151836040015184608001518560a00151604051611c55959493929190613c45565b60405180910390a15050565b600160003373ffffffffffffffffffffffffffffffffffffffff1673ffffffffffffffffffffffffffffffffffffffff16815260200190815260200160002060009054906101000a900460ff16611ced576040517f08c379a0000000000000000000000000000000000000000000000000000000008152600401611ce490613dfb565b60405180910390fd5b600160008373ffffffffffffffffffffffffffffffffffffffff1673ffffffffffffffffffffffffffffffffffffffff16815260200190815260200160002060009054906101000a900460ff16611d79576040517f08c379a0000000000000000000000000000000000000000000000000000000008152600401611d7090613f7b565b60405180910390fd5b60008111611dbc576040517f08c379a0000000000000000000000000000000000000000000000000000000008152600401611db390613fdb565b60405180910390fd5b6004600081548092919060010191905055506040518060c001604052808373ffffffffffffffffffffffffffffffffffffffff1681526020013373ffffffffffffffffffffffffffffffffffffffff1681526020018281526020014281526020016000151581526020016000151581525060056000600454815260200190815260200160002060008201518160000160006101000a81548173ffffffffffffffffffffffffffffffffffffffff021916908373ffffffffffffffffffffffffffffffffffffffff16021790555060208201518160010160006101000a81548173ffffffffffffffffffffffffffffffffffffffff021916908373ffffffffffffffffffffffffffffffffffffffff160217905550604082015181600201556060820151816003015560808201518160040160006101000a81548160ff02191690831515021790555060a08201518160040160016101000a81548160ff0219169083151502179055509050507fe366e74e45e6b3fc5fbdf9120f43b2ec59a42e6c2999ed9108ba6873bd637c1b823383600080604051611f5f959493929190613c45565b60405180910390a15050565b611f73612cb8565b6000600190505b600254811161226257826003600083815260200190815260200160002060040154141561225557611fa9612cb8565b6003600083815260200190815260200160002060405180610100016040529081600082015481526020016001820160009054906101000a900473ffffffffffffffffffffffffffffffffffffffff1673ffffffffffffffffffffffffffffffffffffffff1673ffffffffffffffffffffffffffffffffffffffff168152602001600282018054600181600116156101000203166002900480601f0160208091040260200160405190810160405280929190818152602001828054600181600116156101000203166002900480156120c15780601f10612096576101008083540402835291602001916120c1565b820191906000526020600020905b8154815290600101906020018083116120a457829003601f168201915b50505050508152602001600382018054600181600116156101000203166002900480601f0160208091040260200160405190810160405280929190818152602001828054600181600116156101000203166002900480156121635780601f1061213857610100808354040283529160200191612163565b820191906000526020600020905b81548152906001019060200180831161214657829003601f168201915b5050505050815260200160048201548152602001600582018054600181600116156101000203166002900480601f01602080910402602001604051908101604052809291908181526020018280546001816001161561010002031660029004801561220f5780601f106121e45761010080835404028352916020019161220f565b820191906000526020600020905b8154815290600101906020018083116121f257829003601f168201915b50505050508152602001600682015481526020016007820160009054906101000a900460ff16151515158152505090508060c00160008019168152508092505050612264565b8080600101915050611f7a565b505b919050565b60036020528060005260406000206000915090508060000154908060010160009054906101000a900473ffffffffffffffffffffffffffffffffffffffff1690806002018054600181600116156101000203166002900480601f0160208091040260200160405190810160405280929190818152602001828054600181600116156101000203166002900480156123415780601f1061231657610100808354040283529160200191612341565b820191906000526020600020905b81548152906001019060200180831161232457829003601f168201915b505050505090806003018054600181600116156101000203166002900480601f0160208091040260200160405190810160405280929190818152602001828054600181600116156101000203166002900480156123df5780601f106123b4576101008083540402835291602001916123df565b820191906000526020600020905b8154815290600101906020018083116123c257829003601f168201915b505050505090806004015490806005018054600181600116156101000203166002900480601f0160208091040260200160405190810160405280929190818152602001828054600181600116156101000203166002900480156124835780601f1061245857610100808354040283529160200191612483565b820191906000526020600020905b81548152906001019060200180831161246657829003601f168201915b5050505050908060060154908060070160009054906101000a900460ff16905088565b600160003373ffffffffffffffffffffffffffffffffffffffff1673ffffffffffffffffffffffffffffffffffffffff16815260200190815260200160002060009054906101000a900460ff16612532576040517f08c379a000000000000000000000000000000000000000000000000000000000815260040161252990613dfb565b60405180910390fd5b61253a612cb8565b61254386611013565b90506000816060015151146125c5573373ffffffffffffffffffffffffffffffffffffffff16816020015173ffffffffffffffffffffffffffffffffffffffff16146125c4576040517f08c379a00000000000000000000000000000000000000000000000000000000081526004016125bb90613e1b565b60405180910390fd5b5b6125ce3361080b565b905083805190602001206125e133612b7d565b14612621576040517f08c379a000000000000000000000000000000000000000000000000000000000815260040161261890613ddb565b60405180910390fd5b600073ffffffffffffffffffffffffffffffffffffffff163373ffffffffffffffffffffffffffffffffffffffff161415612691576040517f08c379a000000000000000000000000000000000000000000000000000000000815260040161268890613fbb565b60405180910390fd5b60008751116126d5576040517f08c379a00000000000000000000000000000000000000000000000000000000081526004016126cc90613dbb565b60405180910390fd5b6000865111612719576040517f08c379a000000000000000000000000000000000000000000000000000000000815260040161271090613ebb565b60405180910390fd5b600085141561275d576040517f08c379a000000000000000000000000000000000000000000000000000000000815260040161275490613e3b565b60405180910390fd5b60048451146127a1576040517f08c379a000000000000000000000000000000000000000000000000000000000815260040161279890613e7b565b60405180910390fd5b60048351146127e5576040517f08c379a00000000000000000000000000000000000000000000000000000000081526004016127dc90613e7b565b60405180910390fd5b6000151582151514806127fc575060011515821515145b61283b576040517f08c379a000000000000000000000000000000000000000000000000000000000815260040161283290613f1b565b60405180910390fd5b3373ffffffffffffffffffffffffffffffffffffffff16816020015173ffffffffffffffffffffffffffffffffffffffff16146128ad576040517f08c379a00000000000000000000000000000000000000000000000000000000081526004016128a490613f5b565b60405180910390fd5b8681604001819052508581606001819052508481608001818152505082805190602001208160c0018181525050818160e0019015159081151581525050600115158215151415612a17576000600190505b6002548111612a15578160a0015180519060200120600360008381526020019081526020016000206005016040516129369190613b0b565b60405180910390201415612a08573373ffffffffffffffffffffffffffffffffffffffff166003600083815260200190815260200160002060010160009054906101000a900473ffffffffffffffffffffffffffffffffffffffff1673ffffffffffffffffffffffffffffffffffffffff1614612a07576003600082815260200190815260200160002060070160009054906101000a900460ff1615612a065760006003600083815260200190815260200160002060070160006101000a81548160ff0219169083151502179055505b5b5b80806001019150506128fe565b505b8060036000836000015181526020019081526020016000206000820151816000015560208201518160010160006101000a81548173ffffffffffffffffffffffffffffffffffffffff021916908373ffffffffffffffffffffffffffffffffffffffff1602179055506040820151816002019080519060200190612a9c929190612d7e565b506060820151816003019080519060200190612ab9929190612d7e565b506080820151816004015560a0820151816005019080519060200190612ae0929190612d7e565b5060c0820151816006015560e08201518160070160006101000a81548160ff02191690831515021790555090505080600001517f58ebf74e904849dbafbef7d2896d43f9be8578e5107c977f0d7a4409de637e47338360400151846060015185608001518660a001518760e00151604051612b6096959493929190613bcf565b60405180910390a250505050505050565b60045481565b60065481565b6000600160003373ffffffffffffffffffffffffffffffffffffffff1673ffffffffffffffffffffffffffffffffffffffff16815260200190815260200160002060009054906101000a900460ff16612c0b576040517f08c379a0000000000000000000000000000000000000000000000000000000008152600401612c0290613dfb565b60405180910390fd5b6000600190505b6002548111612cb1578273ffffffffffffffffffffffffffffffffffffffff166003600083815260200190815260200160002060010160009054906101000a900473ffffffffffffffffffffffffffffffffffffffff1673ffffffffffffffffffffffffffffffffffffffff161415612ca4576003600082815260200190815260200160002060060154915050612cb3565b8080600101915050612c12565b505b919050565b60405180610100016040528060008152602001600073ffffffffffffffffffffffffffffffffffffffff16815260200160608152602001606081526020016000815260200160608152602001600080191681526020016000151581525090565b6040518060c00160405280600073ffffffffffffffffffffffffffffffffffffffff168152602001600073ffffffffffffffffffffffffffffffffffffffff16815260200160008152602001600081526020016000151581526020016000151581525090565b828054600181600116156101000203166002900490600052602060002090601f016020900481019282601f10612dbf57805160ff1916838001178555612ded565b82800160010185558215612ded579182015b82811115612dec578251825591602001919060010190612dd1565b5b509050612dfa9190612dfe565b5090565b612e2091905b80821115612e1c576000816000905550600101612e04565b5090565b90565b600081359050612e3281614269565b92915050565b600081359050612e4781614280565b92915050565b600081359050612e5c81614297565b92915050565b600082601f830112612e7357600080fd5b8135612e86612e81826140f8565b6140cb565b91508082526020830160208301858383011115612ea257600080fd5b612ead838284614216565b50505092915050565b600081359050612ec5816142ae565b92915050565b600060208284031215612edd57600080fd5b6000612eeb84828501612e23565b91505092915050565b60008060408385031215612f0757600080fd5b6000612f1585828601612e38565b925050602083013567ffffffffffffffff811115612f3257600080fd5b612f3e85828601612e62565b9150509250929050565b60008060408385031215612f5b57600080fd5b6000612f6985828601612e23565b9250506020612f7a85828601612eb6565b9150509250929050565b600060208284031215612f9657600080fd5b600082013567ffffffffffffffff811115612fb057600080fd5b612fbc84828501612e62565b91505092915050565b600080600080600060a08688031215612fdd57600080fd5b600086013567ffffffffffffffff811115612ff757600080fd5b61300388828901612e62565b955050602086013567ffffffffffffffff81111561302057600080fd5b61302c88828901612e62565b945050604061303d88828901612eb6565b935050606086013567ffffffffffffffff81111561305a57600080fd5b61306688828901612e62565b925050608086013567ffffffffffffffff81111561308357600080fd5b61308f88828901612e62565b9150509295509295909350565b60008060008060008060c087890312156130b557600080fd5b600087013567ffffffffffffffff8111156130cf57600080fd5b6130db89828a01612e62565b965050602087013567ffffffffffffffff8111156130f857600080fd5b61310489828a01612e62565b955050604061311589828a01612eb6565b945050606087013567ffffffffffffffff81111561313257600080fd5b61313e89828a01612e62565b935050608087013567ffffffffffffffff81111561315b57600080fd5b61316789828a01612e62565b92505060a061317889828a01612e4d565b9150509295509295509295565b60006020828403121561319757600080fd5b60006131a584828501612eb6565b91505092915050565b600080604083850312156131c157600080fd5b60006131cf85828601612eb6565b925050602083013567ffffffffffffffff8111156131ec57600080fd5b6131f885828601612e62565b9150509250929050565b61320b816141e0565b82525050565b61321a8161418e565b82525050565b6132298161418e565b82525050565b6132388161417c565b82525050565b613247816141a0565b82525050565b613256816141a0565b82525050565b613265816141ac565b82525050565b613274816141ac565b82525050565b60008154600181166000811461329757600181146132bc57613300565b607f60028304166132a8818761414f565b955060ff1983168652808601935050613300565b600282046132ca818761414f565b95506132d585614124565b60005b828110156132f7578154818901526001820191506020810190506132d8565b82880195505050505b505092915050565b600061331382614144565b61331d818561416b565b935061332d818560208601614225565b61333681614258565b840191505092915050565b600061334c82614139565b613356818561415a565b9350613366818560208601614225565b61336f81614258565b840191505092915050565b600061338582614139565b61338f818561416b565b935061339f818560208601614225565b6133a881614258565b840191505092915050565b60006133c060128361416b565b91507f496e76616c6964207265717565737420696400000000000000000000000000006000830152602082019050919050565b6000613400601b8361416b565b91507f5265717565737420697320616c72656164792072656a656374656400000000006000830152602082019050919050565b6000613440601f8361416b565b91507f4163636f756e7420686f6c646572206e616d65206973207265717569726564006000830152602082019050919050565b6000613480600d8361416b565b91507f50696e2069732077726f6e6721000000000000000000000000000000000000006000830152602082019050919050565b60006134c060218361416b565b91507f53656e646572206163636f756e74206e756d62657220697320696e76616c696460008301527f21000000000000000000000000000000000000000000000000000000000000006020830152604082019050919050565b600061352660108361416b565b91507f447061792069642069732074616b656e000000000000000000000000000000006000830152602082019050919050565b6000613566602f8361416b565b91507f412076616c6964206163636f756e742070686f6e65206e6f283130206469676960008301527f74732920697320726571756972656400000000000000000000000000000000006020830152604082019050919050565b60006135cc60238361416b565b91507f5265636569766572206163636f756e74206e756d62657220697320696e76616c60008301527f69642100000000000000000000000000000000000000000000000000000000006020830152604082019050919050565b600061363260278361416b565b91507f56616c6964206163636f756e742070696e28342064696769747329206973207260008301527f65717569726564000000000000000000000000000000000000000000000000006020830152604082019050919050565b600061369860248361416b565b91507f412076616c6964206163636f756e742070686f6e65206e6f206973207265717560008301527f69726564000000000000000000000000000000000000000000000000000000006020830152604082019050919050565b60006136fe601b8361416b565b91507f4163636f756e74206470617920696420697320726571756972656400000000006000830152602082019050919050565b600061373e601c8361416b565b91507f5265717565737420697320616c72656164792066756c66696c6c6564000000006000830152602082019050919050565b600061377e601d8361416b565b91507f4163636f756e7420676f6f676c652069642069732072657175697265640000006000830152602082019050919050565b60006137be60228361416b565b91507f5072696d617279206163636f756e74207374617475732069732072657175697260008301527f65640000000000000000000000000000000000000000000000000000000000006020830152604082019050919050565b6000613824601e8361416b565b91507f4163636f756e74206e756d62657220616c7265616479206578697374732100006000830152602082019050919050565b600061386460308361416b565b91507f4f6e6c79206163636f756e7420686f6c6465722063616e20656469742074686560008301527f206163636f756e742064657461696c73000000000000000000000000000000006020830152604082019050919050565b60006138ca60248361416b565b91507f526571756573746564206163636f756e74206e756d62657220697320696e766160008301527f6c696421000000000000000000000000000000000000000000000000000000006020830152604082019050919050565b600061393060228361416b565b91507f526571756573746564206163636f756e74206e6f2e206973206e6f7420796f7560008301527f72730000000000000000000000000000000000000000000000000000000000006020830152604082019050919050565b600061399660178361416b565b91507f4163636f756e74206e6f2e2069732072657175697265640000000000000000006000830152602082019050919050565b60006139d660298361416b565b91507f52657175657374656420616d6f756e74206d757374206265206d6f726520746860008301527f616e2030204554482100000000000000000000000000000000000000000000006020830152604082019050919050565b600061010083016000830151613a486000860182613aed565b506020830151613a5b6020860182613211565b5060408301518482036040860152613a738282613341565b91505060608301518482036060860152613a8d8282613341565b9150506080830151613aa26080860182613aed565b5060a083015184820360a0860152613aba8282613341565b91505060c0830151613acf60c086018261325c565b5060e0830151613ae260e086018261323e565b508091505092915050565b613af6816141d6565b82525050565b613b05816141d6565b82525050565b6000613b17828461327a565b915081905092915050565b6000606082019050613b376000830186613202565b613b446020830185613220565b613b516040830184613afc565b949350505050565b600060c082019050613b6e6000830189613220565b8181036020830152613b808188613308565b90508181036040830152613b948187613308565b9050613ba36060830186613afc565b8181036080830152613bb58185613308565b9050613bc460a083018461324d565b979650505050505050565b600060c082019050613be46000830189613220565b8181036020830152613bf6818861337a565b90508181036040830152613c0a818761337a565b9050613c196060830186613afc565b8181036080830152613c2b818561337a565b9050613c3a60a083018461324d565b979650505050505050565b600060a082019050613c5a600083018861322f565b613c676020830187613220565b613c746040830186613afc565b613c81606083018561324d565b613c8e608083018461324d565b9695505050505050565b6000608082019050613cad600083018761322f565b613cba6020830186613220565b613cc76040830185613afc565b613cd46060830184613afc565b95945050505050565b600060c082019050613cf2600083018961322f565b613cff6020830188613220565b613d0c6040830187613afc565b613d196060830186613afc565b613d26608083018561324d565b613d3360a083018461324d565b979650505050505050565b6000602082019050613d53600083018461324d565b92915050565b60006020820190508181036000830152613d73818461337a565b905092915050565b60006020820190508181036000830152613d94816133b3565b9050919050565b60006020820190508181036000830152613db4816133f3565b9050919050565b60006020820190508181036000830152613dd481613433565b9050919050565b60006020820190508181036000830152613df481613473565b9050919050565b60006020820190508181036000830152613e14816134b3565b9050919050565b60006020820190508181036000830152613e3481613519565b9050919050565b60006020820190508181036000830152613e5481613559565b9050919050565b60006020820190508181036000830152613e74816135bf565b9050919050565b60006020820190508181036000830152613e9481613625565b9050919050565b60006020820190508181036000830152613eb48161368b565b9050919050565b60006020820190508181036000830152613ed4816136f1565b9050919050565b60006020820190508181036000830152613ef481613731565b9050919050565b60006020820190508181036000830152613f1481613771565b9050919050565b60006020820190508181036000830152613f34816137b1565b9050919050565b60006020820190508181036000830152613f5481613817565b9050919050565b60006020820190508181036000830152613f7481613857565b9050919050565b60006020820190508181036000830152613f94816138bd565b9050919050565b60006020820190508181036000830152613fb481613923565b9050919050565b60006020820190508181036000830152613fd481613989565b9050919050565b60006020820190508181036000830152613ff4816139c9565b9050919050565b600060208201905081810360008301526140158184613a2f565b905092915050565b60006020820190506140326000830184613afc565b92915050565b60006101008201905061404e600083018b613afc565b61405b602083018a613220565b818103604083015261406d818961337a565b90508181036060830152614081818861337a565b90506140906080830187613afc565b81810360a08301526140a2818661337a565b90506140b160c083018561326b565b6140be60e083018461324d565b9998505050505050505050565b6000604051905081810181811067ffffffffffffffff821117156140ee57600080fd5b8060405250919050565b600067ffffffffffffffff82111561410f57600080fd5b601f19601f8301169050602081019050919050565b60008190508160005260206000209050919050565b600081519050919050565b600081519050919050565b600081905092915050565b600082825260208201905092915050565b600082825260208201905092915050565b6000614187826141b6565b9050919050565b6000614199826141b6565b9050919050565b60008115159050919050565b6000819050919050565b600073ffffffffffffffffffffffffffffffffffffffff82169050919050565b6000819050919050565b60006141eb826141f2565b9050919050565b60006141fd82614204565b9050919050565b600061420f826141b6565b9050919050565b82818337600083830152505050565b60005b83811015614243578082015181840152602081019050614228565b83811115614252576000848401525b50505050565b6000601f19601f8301169050919050565b6142728161417c565b811461427d57600080fd5b50565b6142898161418e565b811461429457600080fd5b50565b6142a0816141a0565b81146142ab57600080fd5b50565b6142b7816141d6565b81146142c257600080fd5b5056fea365627a7a723158200fb83a5af761507cd886545c73fe4c73e249e790f2e908f7fae9ada218eff2566c6578706572696d656e74616cf564736f6c63430005100040",
  "source": "pragma solidity ^0.5.0;\r\npragma experimental ABIEncoderV2;\r\n\r\ncontract DAppPay{\r\n\tstring public name;\r\n\r\n\t/* Store accounts */\r\n\tmapping(address => bool) public accountNumbers;\r\n\tuint public accountsCount;\r\n\tmapping(uint => Account) public accounts;\r\n\tstruct Account{\r\n\t\tuint accountId;\r\n\t\taddress payable accountNo;\r\n\t\tstring accountHolderName;\r\n\t\tstring dpayId;\r\n\t\tuint phoneNo;\r\n\t\tstring googleId;\r\n\t\tbytes32 pin;\r\n\t\tbool isPrimaryAccount;\r\n\t}\r\n\r\n\t/* Store request-money */\r\n\tuint public requestsCount;\r\n\tmapping(uint => Request) public requests;\r\n\tstruct Request{\r\n\t\taddress requestingTo;\r\n\t\taddress payable requestingFrom;\r\n\t\tuint amount;\r\n\t\tuint time;\r\n\t\tbool isFulfilled;\r\n\t\tbool isRejected;\r\n\t}\r\n\r\n\t/* Store transaction history */\r\n\tuint public transactionsCount;\r\n\tmapping(uint => Transaction) public transactions;\r\n\tstruct Transaction{\r\n\t\taddress sender;\r\n\t\taddress payable receiver;\r\n\t\tuint amount;\r\n\t\tuint time;\r\n\t}\r\n\r\n\tconstructor() public{\r\n\t\tname = \"DAppPay\";\r\n\t\taccountsCount = 0;\r\n\t}\r\n\r\n\t/* Modifiers */\r\n\tmodifier onlyExistingAccount{\r\n\t\trequire(accountNumbers[msg.sender], 'Sender account number is invalid!');\r\n      \t_;\r\n\t}\r\n\r\n\tmodifier onlyUniqiueAccount{\r\n\t\trequire(!accountNumbers[msg.sender], 'Account number already exists!');\r\n      \t_;\r\n\t}\r\n\t\r\n\t/* Events */\r\n\tevent AccountCreated(uint indexed accountId, address payable accountNo, string accountHolderName, string dpayId, uint phoneNo, string googleId, bool isPrimaryAccount);\r\n\tevent AccountEdited(uint indexed accountId, address payable accountNo, string accountHolderName, string dpayId, uint phoneNo, string googleId, bool isPrimaryAccount);\r\n\tevent AmmountTransfered(address sender, address payable receiver, uint amount);\r\n\tevent AmmountRequested(address requestingTo, address payable requestingFrom, uint amount, bool isFulfilled, bool isRejected);\r\n\tevent FulFillAmmountRequested(address requestingTo, address payable requestingFrom, uint amount, bool isFulfilled, bool isRejected);\r\n\tevent RejectAmmountRequested(address requestingTo, address payable requestingFrom, uint amount, bool isFulfilled, bool isRejected);\r\n\r\n\t/* Main Functions */\r\n\tfunction createAccount(string memory _accountHolderName, string memory _dpayId, uint _phoneNo, string memory _googleId, string memory _pin) public onlyUniqiueAccount{\r\n\t\t// Make sure the inputs exists\r\n\t\trequire(msg.sender != address(0x0), \"Account no. is required\");\r\n\t\trequire(bytes(_accountHolderName).length > 0, \"Account holder name is required\");\r\n\t\trequire(bytes(_dpayId).length > 0, \"Account dpay id is required\");\r\n\t\trequire(_phoneNo != 0, \"A valid account phone no is required\");\r\n\t\trequire(bytes(_googleId).length > 0, \"Account google id is required\");\r\n\t\trequire(bytes(_pin).length == 4, \"Valid account pin(4 digits) is required\");\r\n\r\n\t\t// Make sure dpay id is unique\r\n\t\tAccount memory _account = _getAccountUsingDpayId(_dpayId);\r\n\t\tif(bytes(_account.dpayId).length != 0){\r\n\t\t\trevert(\"Dpay id is taken\");\r\n\t\t}\r\n\r\n\t\t// Add account\r\n\t\taccountsCount++;\r\n\t\taccounts[accountsCount] = Account(accountsCount, msg.sender, _accountHolderName, _dpayId, _phoneNo, _googleId, keccak256(bytes(_pin)), false);\r\n\t\taccountNumbers[msg.sender] = true;\r\n\r\n\t\t// Trigger event\r\n\t\temit AccountCreated(accountsCount, msg.sender, _accountHolderName,_dpayId, _phoneNo, _googleId, false);\r\n\t}\r\n\r\n\tfunction editAccount(string memory _accountHolderName, string memory _dpayId, uint _phoneNo, string memory _oldPin, string memory _newPin, bool _isPrimaryAccount) public onlyExistingAccount{\r\n\t\t// Make sure dpay id is unique\r\n\t\tAccount memory _account = _getAccountUsingDpayId(_dpayId);\r\n\t\tif(bytes(_account.dpayId).length != 0){\r\n\t\t\tif(_account.accountNo != msg.sender){\r\n\t\t\t\trevert(\"Dpay id is taken\");\r\n\t\t\t}\r\n\t\t}\r\n\r\n\t\t_account = _getAccountUsingAccountNumber(msg.sender);\r\n\r\n\t\t// Make sure account pin is same as the pin entered by the user(sender)\r\n\t\trequire(_getAccountPin(msg.sender) == keccak256(bytes(_oldPin)), \"Pin is wrong!\");\r\n\r\n\t\t// Make sure the inputs exists\r\n\t\trequire(msg.sender != address(0x0), \"Account no. is required\");\r\n\t\trequire(bytes(_accountHolderName).length > 0, \"Account holder name is required\");\r\n\t\trequire(bytes(_dpayId).length > 0, \"Account dpay id is required\");\r\n\t\trequire(_phoneNo != 0, \"A valid account phone no(10 digits) is required\");\r\n\t\trequire(bytes(_oldPin).length == 4, \"Valid account pin(4 digits) is required\");\r\n\t\trequire(bytes(_newPin).length == 4, \"Valid account pin(4 digits) is required\");\r\n\t\trequire(_isPrimaryAccount == false || _isPrimaryAccount == true, \"Primary account status is required\");\r\n\r\n\t\t// Make sure account address is msg.sender only\r\n\t\trequire(_account.accountNo == msg.sender, \"Only account holder can edit the account details\");\r\n\r\n\t\t// Edit account\r\n\t\t_account.accountHolderName = _accountHolderName;\r\n\t\t_account.dpayId = _dpayId;\r\n\t\t_account.phoneNo = _phoneNo;\r\n\t\t_account.pin = keccak256(bytes(_newPin));\r\n\t\t_account.isPrimaryAccount = _isPrimaryAccount;\r\n\r\n\t\t// If _isPrimaryAccount==true then set _isPrimaryAccount=false in other account's of same user\r\n\t\tif(_isPrimaryAccount==true){\r\n\t\t\tfor (uint i = 1; i <= accountsCount; i++) {\r\n\t\t\t\tif(keccak256(bytes(accounts[i].googleId)) == keccak256(bytes(_account.googleId))){\r\n\t\t\t\t\tif(accounts[i].accountNo != msg.sender){\r\n\t\t\t\t\t\tif(accounts[i].isPrimaryAccount){\r\n\t\t\t\t\t\t\taccounts[i].isPrimaryAccount = false;\r\n\t\t\t\t\t\t}\r\n\t\t\t\t\t}\r\n\t\t\t\t}\r\n\t\t\t}\r\n\t\t}\r\n\r\n\t\t// Store edited account\r\n\t\taccounts[_account.accountId] = _account;\r\n\r\n\t\t// Trigger event\r\n\t\temit AccountEdited(_account.accountId, msg.sender, _account.accountHolderName, _account.dpayId, _account.phoneNo, _account.googleId, _account.isPrimaryAccount);\r\n\t}\r\n\r\n\tfunction sendAmount(address payable _receiver, string memory _pin) public payable onlyExistingAccount{\r\n\t\t// Make sure receiver account address exists\r\n\t\trequire(accountNumbers[_receiver], \"Receiver account number is invalid!\" );\r\n\r\n\t\t// Make sure account pin is same as the pin entered by the user(sender)\r\n\t\trequire(_getAccountPin(msg.sender) == keccak256(bytes(_pin)), \"Pin is wrong!\");\r\n\r\n\t\t// Transfer amount to receiver\r\n\t\taddress(_receiver).transfer(msg.value);\r\n\t\ttransactionsCount++;\r\n\t\ttransactions[transactionsCount] = Transaction(msg.sender, _receiver, msg.value, block.timestamp);\r\n\r\n\t\t// Trigger event\r\n\t\temit AmmountTransfered(msg.sender, _receiver, msg.value);\r\n\t}\r\n\r\n\tfunction requestAmount(address _requestTo, uint _amount) public onlyExistingAccount{\r\n\t\t// Make sure requested account address exists\r\n\t\trequire(accountNumbers[_requestTo], \"Requested account number is invalid!\" );\r\n\t\t// Make sure requested amount is valid\r\n\t\trequire(_amount > 0, \"Requested amount must be more than 0 ETH!\" );\r\n\r\n\t\t// Add request\r\n\t\trequestsCount++;\r\n\t\trequests[requestsCount] = Request(_requestTo, msg.sender, _amount, block.timestamp, false, false);\r\n\r\n\t\t// Trigger event\r\n\t\temit AmmountRequested(_requestTo, msg.sender, _amount, false, false);\r\n\t}\r\n\r\n\tfunction fulfillRequestedAmount(uint requestId, string memory _pin) public payable onlyExistingAccount{\r\n\t\t// Make sure request id is valid\r\n\t\trequire(requestId > 0 && requestId <= requestsCount, \"Invalid request id\");\r\n\r\n\t\tRequest memory _request = requests[requestId];\r\n\r\n\t\t// Make sure request is not rejected\r\n\t\trequire(!_request.isRejected, \"Request is already rejected\");\r\n\r\n\t\t// Make sure requested address is changing the data\r\n\t\trequire(_request.requestingTo == msg.sender, \"Requested account no. is not yours\");\r\n\r\n\t\t// Make transaction\r\n\t\tsendAmount(_request.requestingFrom, _pin);\r\n\r\n\t\t// Mark request as fulfilled\r\n\t\t_request.isFulfilled = true;\r\n\t\trequests[requestId] = _request;\r\n\t\t\r\n\t\t// Trigger event\r\n\t\temit FulFillAmmountRequested(_request.requestingTo, _request.requestingFrom, _request.amount, _request.isFulfilled, _request.isRejected);\r\n\t}\r\n\r\n\tfunction rejectRequestedAmount(uint requestId) public onlyExistingAccount{\r\n\t\t// Make sure request id is valid\r\n\t\trequire(requestId > 0 && requestId <= requestsCount, \"Invalid request id\");\r\n\t\t\r\n\t\tRequest memory _request = requests[requestId];\r\n\r\n\t\t// Make sure request is not fulfilled\r\n\t\trequire(!_request.isFulfilled, \"Request is already fulfilled\");\r\n\r\n\t\t// Make sure requested address is changing the data\r\n\t\trequire(_request.requestingTo == msg.sender, \"Requested account no. is not yours\");\r\n\r\n\r\n\t\t// Mark request as rejected\r\n\t\t_request.isRejected = true;\r\n\t\trequests[requestId] = _request;\r\n\t\t\r\n\t\t// Trigger event\r\n\t\temit RejectAmmountRequested(_request.requestingTo, _request.requestingFrom, _request.amount, _request.isFulfilled, _request.isRejected);\r\n\t}\r\n\r\n\t/* Helper Functions */\r\n\tfunction _getAccountUsingAccountNumber(address _accountNo) public view returns(Account memory){\r\n\t\tfor(uint i=1; i<=accountsCount; i++){\r\n\t\t\tif(accounts[i].accountNo == _accountNo){\r\n\t\t\t\tAccount memory _account = accounts[i];\r\n\t\t\t\tdelete _account.pin;\r\n\t\t\t\treturn _account;\r\n\t\t\t}\r\n\t\t}\r\n\t}\r\n\r\n\tfunction _getAccountUsingDpayId(string memory _dpayId) public view returns(Account memory){\r\n\t\tfor(uint i=1; i<=accountsCount; i++){\r\n\t\t\tif(keccak256(bytes(accounts[i].dpayId)) == keccak256(bytes(_dpayId))){\r\n\t\t\t\tAccount memory _account = accounts[i];\r\n\t\t\t\tdelete _account.pin;\r\n\t\t\t\treturn _account;\r\n\t\t\t}\r\n\t\t}\r\n\t}\r\n\r\n\tfunction _getAccountUsingPhoneNumber(uint _phoneNo) public view returns(Account memory){\r\n\t\tfor(uint i=1; i<=accountsCount; i++){\r\n\t\t\tif(accounts[i].phoneNo == _phoneNo){\r\n\t\t\t\tAccount memory _account = accounts[i];\r\n\t\t\t\tdelete _account.pin;\r\n\t\t\t\treturn _account;\r\n\t\t\t}\r\n\t\t}\r\n\t}\r\n\r\n\tfunction _getAccountPin(address _accountNo) private view onlyExistingAccount returns(bytes32){\r\n\t\tfor(uint i=1; i<=accountsCount; i++){\r\n\t\t\tif(accounts[i].accountNo == _accountNo){\r\n\t\t\t\treturn accounts[i].pin;\r\n\t\t\t}\r\n\t\t}\r\n\t}\r\n}",
  "sourcePath": "D:\\Engineering\\Dev\\Blockchain Development\\Projects\\DAppPay\\src\\contracts\\DAppPay.sol",
  "compiler": {
    "name": "solc",
    "version": "0.5.16+commit.9c3226ce.Emscripten.clang"
  },
  "schemaVersion": "3.4.3",
  "updatedAt": "2021-10-07T15:41:59.891Z",
  "networkType": "ethereum",
  "devdoc": {
    "methods": {}
  },
  "userdoc": {
    "methods": {}
  }
}